{
  "_format": "hh-sol-artifact-1",
  "contractName": "CryptoHermits",
  "sourceName": "contracts/CryptoHermits.sol",
  "abi": [
    {
      "inputs": [
        {
          "internalType": "string",
          "name": "_name",
          "type": "string"
        },
        {
          "internalType": "string",
          "name": "_symbol",
          "type": "string"
        },
        {
          "internalType": "string",
          "name": "_initBaseURI",
          "type": "string"
        }
      ],
      "stateMutability": "nonpayable",
      "type": "constructor"
    },
    {
      "anonymous": false,
      "inputs": [
        {
          "indexed": true,
          "internalType": "address",
          "name": "owner",
          "type": "address"
        },
        {
          "indexed": true,
          "internalType": "address",
          "name": "approved",
          "type": "address"
        },
        {
          "indexed": true,
          "internalType": "uint256",
          "name": "tokenId",
          "type": "uint256"
        }
      ],
      "name": "Approval",
      "type": "event"
    },
    {
      "anonymous": false,
      "inputs": [
        {
          "indexed": true,
          "internalType": "address",
          "name": "owner",
          "type": "address"
        },
        {
          "indexed": true,
          "internalType": "address",
          "name": "operator",
          "type": "address"
        },
        {
          "indexed": false,
          "internalType": "bool",
          "name": "approved",
          "type": "bool"
        }
      ],
      "name": "ApprovalForAll",
      "type": "event"
    },
    {
      "anonymous": false,
      "inputs": [
        {
          "indexed": true,
          "internalType": "address",
          "name": "previousOwner",
          "type": "address"
        },
        {
          "indexed": true,
          "internalType": "address",
          "name": "newOwner",
          "type": "address"
        }
      ],
      "name": "OwnershipTransferred",
      "type": "event"
    },
    {
      "anonymous": false,
      "inputs": [
        {
          "indexed": true,
          "internalType": "address",
          "name": "from",
          "type": "address"
        },
        {
          "indexed": true,
          "internalType": "address",
          "name": "to",
          "type": "address"
        },
        {
          "indexed": true,
          "internalType": "uint256",
          "name": "tokenId",
          "type": "uint256"
        }
      ],
      "name": "Transfer",
      "type": "event"
    },
    {
      "anonymous": false,
      "inputs": [
        {
          "indexed": false,
          "internalType": "uint256",
          "name": "_newTokenId",
          "type": "uint256"
        }
      ],
      "name": "printNewTokenId",
      "type": "event"
    },
    {
      "inputs": [
        {
          "internalType": "address",
          "name": "to",
          "type": "address"
        },
        {
          "internalType": "uint256",
          "name": "tokenId",
          "type": "uint256"
        }
      ],
      "name": "approve",
      "outputs": [],
      "stateMutability": "nonpayable",
      "type": "function"
    },
    {
      "inputs": [
        {
          "internalType": "address",
          "name": "owner",
          "type": "address"
        }
      ],
      "name": "balanceOf",
      "outputs": [
        {
          "internalType": "uint256",
          "name": "",
          "type": "uint256"
        }
      ],
      "stateMutability": "view",
      "type": "function"
    },
    {
      "inputs": [],
      "name": "baseExtension",
      "outputs": [
        {
          "internalType": "string",
          "name": "",
          "type": "string"
        }
      ],
      "stateMutability": "view",
      "type": "function"
    },
    {
      "inputs": [],
      "name": "baseURI",
      "outputs": [
        {
          "internalType": "string",
          "name": "",
          "type": "string"
        }
      ],
      "stateMutability": "view",
      "type": "function"
    },
    {
      "inputs": [],
      "name": "cost",
      "outputs": [
        {
          "internalType": "uint256",
          "name": "",
          "type": "uint256"
        }
      ],
      "stateMutability": "view",
      "type": "function"
    },
    {
      "inputs": [
        {
          "internalType": "uint256",
          "name": "tokenId",
          "type": "uint256"
        }
      ],
      "name": "getApproved",
      "outputs": [
        {
          "internalType": "address",
          "name": "",
          "type": "address"
        }
      ],
      "stateMutability": "view",
      "type": "function"
    },
    {
      "inputs": [],
      "name": "getBalance",
      "outputs": [
        {
          "internalType": "uint256",
          "name": "",
          "type": "uint256"
        }
      ],
      "stateMutability": "view",
      "type": "function"
    },
    {
      "inputs": [
        {
          "internalType": "address",
          "name": "owner",
          "type": "address"
        },
        {
          "internalType": "address",
          "name": "operator",
          "type": "address"
        }
      ],
      "name": "isApprovedForAll",
      "outputs": [
        {
          "internalType": "bool",
          "name": "",
          "type": "bool"
        }
      ],
      "stateMutability": "view",
      "type": "function"
    },
    {
      "inputs": [],
      "name": "maxMintAmount",
      "outputs": [
        {
          "internalType": "uint256",
          "name": "",
          "type": "uint256"
        }
      ],
      "stateMutability": "view",
      "type": "function"
    },
    {
      "inputs": [],
      "name": "maxSupply",
      "outputs": [
        {
          "internalType": "uint256",
          "name": "",
          "type": "uint256"
        }
      ],
      "stateMutability": "view",
      "type": "function"
    },
    {
      "inputs": [
        {
          "internalType": "uint256",
          "name": "_mintAmount",
          "type": "uint256"
        }
      ],
      "name": "mint",
      "outputs": [],
      "stateMutability": "payable",
      "type": "function"
    },
    {
      "inputs": [],
      "name": "name",
      "outputs": [
        {
          "internalType": "string",
          "name": "",
          "type": "string"
        }
      ],
      "stateMutability": "view",
      "type": "function"
    },
    {
      "inputs": [],
      "name": "owner",
      "outputs": [
        {
          "internalType": "address",
          "name": "",
          "type": "address"
        }
      ],
      "stateMutability": "view",
      "type": "function"
    },
    {
      "inputs": [
        {
          "internalType": "uint256",
          "name": "tokenId",
          "type": "uint256"
        }
      ],
      "name": "ownerOf",
      "outputs": [
        {
          "internalType": "address",
          "name": "",
          "type": "address"
        }
      ],
      "stateMutability": "view",
      "type": "function"
    },
    {
      "inputs": [
        {
          "internalType": "bool",
          "name": "_state",
          "type": "bool"
        }
      ],
      "name": "pause",
      "outputs": [],
      "stateMutability": "nonpayable",
      "type": "function"
    },
    {
      "inputs": [],
      "name": "paused",
      "outputs": [
        {
          "internalType": "bool",
          "name": "",
          "type": "bool"
        }
      ],
      "stateMutability": "view",
      "type": "function"
    },
    {
      "inputs": [],
      "name": "renounceOwnership",
      "outputs": [],
      "stateMutability": "pure",
      "type": "function"
    },
    {
      "inputs": [
        {
          "internalType": "address",
          "name": "from",
          "type": "address"
        },
        {
          "internalType": "address",
          "name": "to",
          "type": "address"
        },
        {
          "internalType": "uint256",
          "name": "tokenId",
          "type": "uint256"
        }
      ],
      "name": "safeTransferFrom",
      "outputs": [],
      "stateMutability": "nonpayable",
      "type": "function"
    },
    {
      "inputs": [
        {
          "internalType": "address",
          "name": "from",
          "type": "address"
        },
        {
          "internalType": "address",
          "name": "to",
          "type": "address"
        },
        {
          "internalType": "uint256",
          "name": "tokenId",
          "type": "uint256"
        },
        {
          "internalType": "bytes",
          "name": "_data",
          "type": "bytes"
        }
      ],
      "name": "safeTransferFrom",
      "outputs": [],
      "stateMutability": "nonpayable",
      "type": "function"
    },
    {
      "inputs": [
        {
          "internalType": "address",
          "name": "operator",
          "type": "address"
        },
        {
          "internalType": "bool",
          "name": "approved",
          "type": "bool"
        }
      ],
      "name": "setApprovalForAll",
      "outputs": [],
      "stateMutability": "nonpayable",
      "type": "function"
    },
    {
      "inputs": [
        {
          "internalType": "string",
          "name": "_newBaseExtension",
          "type": "string"
        }
      ],
      "name": "setBaseExtension",
      "outputs": [],
      "stateMutability": "nonpayable",
      "type": "function"
    },
    {
      "inputs": [
        {
          "internalType": "string",
          "name": "_newBaseURI",
          "type": "string"
        }
      ],
      "name": "setBaseURI",
      "outputs": [],
      "stateMutability": "nonpayable",
      "type": "function"
    },
    {
      "inputs": [
        {
          "internalType": "uint256",
          "name": "_newCost",
          "type": "uint256"
        }
      ],
      "name": "setCost",
      "outputs": [],
      "stateMutability": "nonpayable",
      "type": "function"
    },
    {
      "inputs": [
        {
          "internalType": "uint256",
          "name": "_newmaxMintAmount",
          "type": "uint256"
        }
      ],
      "name": "setmaxMintAmount",
      "outputs": [],
      "stateMutability": "nonpayable",
      "type": "function"
    },
    {
      "inputs": [
        {
          "internalType": "bytes4",
          "name": "interfaceId",
          "type": "bytes4"
        }
      ],
      "name": "supportsInterface",
      "outputs": [
        {
          "internalType": "bool",
          "name": "",
          "type": "bool"
        }
      ],
      "stateMutability": "view",
      "type": "function"
    },
    {
      "inputs": [],
      "name": "symbol",
      "outputs": [
        {
          "internalType": "string",
          "name": "",
          "type": "string"
        }
      ],
      "stateMutability": "view",
      "type": "function"
    },
    {
      "inputs": [
        {
          "internalType": "uint256",
          "name": "index",
          "type": "uint256"
        }
      ],
      "name": "tokenByIndex",
      "outputs": [
        {
          "internalType": "uint256",
          "name": "",
          "type": "uint256"
        }
      ],
      "stateMutability": "view",
      "type": "function"
    },
    {
      "inputs": [
        {
          "internalType": "address",
          "name": "owner",
          "type": "address"
        },
        {
          "internalType": "uint256",
          "name": "index",
          "type": "uint256"
        }
      ],
      "name": "tokenOfOwnerByIndex",
      "outputs": [
        {
          "internalType": "uint256",
          "name": "",
          "type": "uint256"
        }
      ],
      "stateMutability": "view",
      "type": "function"
    },
    {
      "inputs": [
        {
          "internalType": "uint256",
          "name": "tokenId",
          "type": "uint256"
        }
      ],
      "name": "tokenURI",
      "outputs": [
        {
          "internalType": "string",
          "name": "",
          "type": "string"
        }
      ],
      "stateMutability": "view",
      "type": "function"
    },
    {
      "inputs": [],
      "name": "totalSupply",
      "outputs": [
        {
          "internalType": "uint256",
          "name": "",
          "type": "uint256"
        }
      ],
      "stateMutability": "view",
      "type": "function"
    },
    {
      "inputs": [
        {
          "internalType": "address",
          "name": "from",
          "type": "address"
        },
        {
          "internalType": "address",
          "name": "to",
          "type": "address"
        },
        {
          "internalType": "uint256",
          "name": "tokenId",
          "type": "uint256"
        }
      ],
      "name": "transferFrom",
      "outputs": [],
      "stateMutability": "nonpayable",
      "type": "function"
    },
    {
      "inputs": [
        {
          "internalType": "address",
          "name": "newOwner",
          "type": "address"
        }
      ],
      "name": "transferOwnership",
      "outputs": [],
      "stateMutability": "nonpayable",
      "type": "function"
    },
    {
      "inputs": [
        {
          "internalType": "address",
          "name": "_owner",
          "type": "address"
        }
      ],
      "name": "walletOfOwner",
      "outputs": [
        {
          "internalType": "uint256[]",
          "name": "",
          "type": "uint256[]"
        }
      ],
      "stateMutability": "view",
      "type": "function"
    },
    {
      "inputs": [],
      "name": "withdraw",
      "outputs": [],
      "stateMutability": "payable",
      "type": "function"
    }
  ],
  "bytecode": "0x60806040526040518060400160405280600581526020017f2e6a736f6e000000000000000000000000000000000000000000000000000000815250600c90805190602001906200005192919062000f8c565b50662386f26fc10000600d556103e8600e556003600f556000601060006101000a81548160ff0219169083151502179055503480156200009057600080fd5b5060405162005e8238038062005e828339818101604052810190620000b69190620010f1565b82828160009080519060200190620000d092919062000f8c565b508060019080519060200190620000e992919062000f8c565b5050506200010c620001006200013860201b60201c565b6200014060201b60201c565b6200011e60056200020660201b60201c565b6200012f816200045660201b60201c565b50505062001a11565b600033905090565b6000600a60009054906101000a900473ffffffffffffffffffffffffffffffffffffffff16905081600a60006101000a81548173ffffffffffffffffffffffffffffffffffffffff021916908373ffffffffffffffffffffffffffffffffffffffff1602179055508173ffffffffffffffffffffffffffffffffffffffff168173ffffffffffffffffffffffffffffffffffffffff167f8be0079c531659141344cd1fd0a4f28419497f9722a3daafe3b4186f6b6457e060405160405180910390a35050565b6000620002186200050160201b60201c565b9050601060009054906101000a900460ff16156200026d576040517f08c379a0000000000000000000000000000000000000000000000000000000008152600401620002649062001603565b60405180910390fd5b60008211620002b3576040517f08c379a0000000000000000000000000000000000000000000000000000000008152600401620002aa9062001559565b60405180910390fd5b600e548282620002c491906200173c565b111562000308576040517f08c379a0000000000000000000000000000000000000000000000000000000008152600401620002ff9062001669565b60405180910390fd5b620003186200050e60201b60201c565b73ffffffffffffffffffffffffffffffffffffffff163373ffffffffffffffffffffffffffffffffffffffff1614620003ce57600f548262000360336200053860201b60201c565b6200036c91906200173c565b1115620003b0576040517f08c379a0000000000000000000000000000000000000000000000000000000008152600401620003a79062001647565b60405180910390fd5b81600d54620003c0919062001799565b341015620003cd57600080fd5b5b6000600190505b828111620004515760008183620003ed91906200173c565b9050620004013382620005f360201b60201c565b7f083abd596c375c52fc39a721bb217ecce465c6ff0c5f1a2d1fdb9b27669686dd816040516200043291906200168b565b60405180910390a150808062000448906200190b565b915050620003d5565b505050565b620004666200013860201b60201c565b73ffffffffffffffffffffffffffffffffffffffff166200048c6200050e60201b60201c565b73ffffffffffffffffffffffffffffffffffffffff1614620004e5576040517f08c379a0000000000000000000000000000000000000000000000000000000008152600401620004dc9062001625565b60405180910390fd5b80600b9080519060200190620004fd92919062000f8c565b5050565b6000600880549050905090565b6000600a60009054906101000a900473ffffffffffffffffffffffffffffffffffffffff16905090565b60008073ffffffffffffffffffffffffffffffffffffffff168273ffffffffffffffffffffffffffffffffffffffff161415620005ac576040517f08c379a0000000000000000000000000000000000000000000000000000000008152600401620005a390620015bf565b60405180910390fd5b600360008373ffffffffffffffffffffffffffffffffffffffff1673ffffffffffffffffffffffffffffffffffffffff168152602001908152602001600020549050919050565b620006158282604051806020016040528060008152506200061960201b60201c565b5050565b6200062b83836200068760201b60201c565b6200064060008484846200086d60201b60201c565b62000682576040517f08c379a000000000000000000000000000000000000000000000000000000000815260040162000679906200157b565b60405180910390fd5b505050565b600073ffffffffffffffffffffffffffffffffffffffff168273ffffffffffffffffffffffffffffffffffffffff161415620006fa576040517f08c379a0000000000000000000000000000000000000000000000000000000008152600401620006f190620015e1565b60405180910390fd5b6200070b8162000a2760201b60201c565b156200074e576040517f08c379a000000000000000000000000000000000000000000000000000000000815260040162000745906200159d565b60405180910390fd5b620007626000838362000a9360201b60201c565b6001600360008473ffffffffffffffffffffffffffffffffffffffff1673ffffffffffffffffffffffffffffffffffffffff1681526020019081526020016000206000828254620007b491906200173c565b92505081905550816002600083815260200190815260200160002060006101000a81548173ffffffffffffffffffffffffffffffffffffffff021916908373ffffffffffffffffffffffffffffffffffffffff160217905550808273ffffffffffffffffffffffffffffffffffffffff16600073ffffffffffffffffffffffffffffffffffffffff167fddf252ad1be2c89b69c2b068fc378daa952ba7f163c4a11628f55a4df523b3ef60405160405180910390a45050565b60006200089b8473ffffffffffffffffffffffffffffffffffffffff1662000bda60201b62001b5f1760201c565b1562000a1a578373ffffffffffffffffffffffffffffffffffffffff1663150b7a02620008cd6200013860201b60201c565b8786866040518563ffffffff1660e01b8152600401620008f1949392919062001505565b602060405180830381600087803b1580156200090c57600080fd5b505af19250505080156200094057506040513d601f19601f820116820180604052508101906200093d9190620010c5565b60015b620009c9573d806000811462000973576040519150601f19603f3d011682016040523d82523d6000602084013e62000978565b606091505b50600081511415620009c1576040517f08c379a0000000000000000000000000000000000000000000000000000000008152600401620009b8906200157b565b60405180910390fd5b805181602001fd5b63150b7a0260e01b7bffffffffffffffffffffffffffffffffffffffffffffffffffffffff1916817bffffffffffffffffffffffffffffffffffffffffffffffffffffffff19161491505062000a1f565b600190505b949350505050565b60008073ffffffffffffffffffffffffffffffffffffffff166002600084815260200190815260200160002060009054906101000a900473ffffffffffffffffffffffffffffffffffffffff1673ffffffffffffffffffffffffffffffffffffffff1614159050919050565b62000aab83838362000bed60201b62001b721760201c565b600073ffffffffffffffffffffffffffffffffffffffff168373ffffffffffffffffffffffffffffffffffffffff16141562000af85762000af28162000bf260201b60201c565b62000b40565b8173ffffffffffffffffffffffffffffffffffffffff168373ffffffffffffffffffffffffffffffffffffffff161462000b3f5762000b3e838262000c3b60201b60201c565b5b5b600073ffffffffffffffffffffffffffffffffffffffff168273ffffffffffffffffffffffffffffffffffffffff16141562000b8d5762000b878162000db860201b60201c565b62000bd5565b8273ffffffffffffffffffffffffffffffffffffffff168273ffffffffffffffffffffffffffffffffffffffff161462000bd45762000bd3828262000f0060201b60201c565b5b5b505050565b600080823b905060008111915050919050565b505050565b6008805490506009600083815260200190815260200160002081905550600881908060018154018082558091505060019003906000526020600020016000909190919091505550565b6000600162000c55846200053860201b620011d31760201c565b62000c619190620017fa565b905060006007600084815260200190815260200160002054905081811462000d47576000600660008673ffffffffffffffffffffffffffffffffffffffff1673ffffffffffffffffffffffffffffffffffffffff168152602001908152602001600020600084815260200190815260200160002054905080600660008773ffffffffffffffffffffffffffffffffffffffff1673ffffffffffffffffffffffffffffffffffffffff168152602001908152602001600020600084815260200190815260200160002081905550816007600083815260200190815260200160002081905550505b6007600084815260200190815260200160002060009055600660008573ffffffffffffffffffffffffffffffffffffffff1673ffffffffffffffffffffffffffffffffffffffff16815260200190815260200160002060008381526020019081526020016000206000905550505050565b6000600160088054905062000dce9190620017fa565b905060006009600084815260200190815260200160002054905060006008838154811062000e25577f4e487b7100000000000000000000000000000000000000000000000000000000600052603260045260246000fd5b90600052602060002001549050806008838154811062000e6e577f4e487b7100000000000000000000000000000000000000000000000000000000600052603260045260246000fd5b90600052602060002001819055508160096000838152602001908152602001600020819055506009600085815260200190815260200160002060009055600880548062000ee4577f4e487b7100000000000000000000000000000000000000000000000000000000600052603160045260246000fd5b6001900381819060005260206000200160009055905550505050565b600062000f18836200053860201b620011d31760201c565b905081600660008573ffffffffffffffffffffffffffffffffffffffff1673ffffffffffffffffffffffffffffffffffffffff168152602001908152602001600020600083815260200190815260200160002081905550806007600084815260200190815260200160002081905550505050565b82805462000f9a90620018d5565b90600052602060002090601f01602090048101928262000fbe57600085556200100a565b82601f1062000fd957805160ff19168380011785556200100a565b828001600101855582156200100a579182015b828111156200100957825182559160200191906001019062000fec565b5b5090506200101991906200101d565b5090565b5b80821115620010385760008160009055506001016200101e565b5090565b6000620010536200104d84620016dc565b620016a8565b9050828152602081018484840111156200106c57600080fd5b620010798482856200189f565b509392505050565b6000815190506200109281620019f7565b92915050565b600082601f830112620010aa57600080fd5b8151620010bc8482602086016200103c565b91505092915050565b600060208284031215620010d857600080fd5b6000620010e88482850162001081565b91505092915050565b6000806000606084860312156200110757600080fd5b600084015167ffffffffffffffff8111156200112257600080fd5b620011308682870162001098565b935050602084015167ffffffffffffffff8111156200114e57600080fd5b6200115c8682870162001098565b925050604084015167ffffffffffffffff8111156200117a57600080fd5b620011888682870162001098565b9150509250925092565b6200119d8162001835565b82525050565b6000620011b0826200170f565b620011bc81856200171a565b9350620011ce8185602086016200189f565b620011d981620019e6565b840191505092915050565b6000620011f36025836200172b565b91507f4d696e7420616d6f756e742068617320746f206265206772656174657220746860008301527f656e20302e0000000000000000000000000000000000000000000000000000006020830152604082019050919050565b60006200125b6032836200172b565b91507f4552433732313a207472616e7366657220746f206e6f6e20455243373231526560008301527f63656976657220696d706c656d656e74657200000000000000000000000000006020830152604082019050919050565b6000620012c3601c836200172b565b91507f4552433732313a20746f6b656e20616c7265616479206d696e746564000000006000830152602082019050919050565b600062001305602a836200172b565b91507f4552433732313a2062616c616e636520717565727920666f7220746865207a6560008301527f726f2061646472657373000000000000000000000000000000000000000000006020830152604082019050919050565b60006200136d6020836200172b565b91507f4552433732313a206d696e7420746f20746865207a65726f20616464726573736000830152602082019050919050565b6000620013af601a836200172b565b91507f436f6e74726163742063616e6e6f74206265207061757365642e0000000000006000830152602082019050919050565b6000620013f16020836200172b565b91507f4f776e61626c653a2063616c6c6572206973206e6f7420746865206f776e65726000830152602082019050919050565b600062001433601e836200172b565b91507f596f752063616e206f6e6c79207075726368617365203320746f6b656e7300006000830152602082019050919050565b6000620014756058836200172b565b91507f5468652063757272656e7420737570706c7920706c757320796f7572206d696e60008301527f7420616d6f756e742068617320746f206265206c657373207468656e206f722060208301527f657175616c20746f20746865206d617820737570706c792e00000000000000006040830152606082019050919050565b620014ff8162001895565b82525050565b60006080820190506200151c600083018762001192565b6200152b602083018662001192565b6200153a6040830185620014f4565b81810360608301526200154e8184620011a3565b905095945050505050565b600060208201905081810360008301526200157481620011e4565b9050919050565b6000602082019050818103600083015262001596816200124c565b9050919050565b60006020820190508181036000830152620015b881620012b4565b9050919050565b60006020820190508181036000830152620015da81620012f6565b9050919050565b60006020820190508181036000830152620015fc816200135e565b9050919050565b600060208201905081810360008301526200161e81620013a0565b9050919050565b600060208201905081810360008301526200164081620013e2565b9050919050565b60006020820190508181036000830152620016628162001424565b9050919050565b60006020820190508181036000830152620016848162001466565b9050919050565b6000602082019050620016a26000830184620014f4565b92915050565b6000604051905081810181811067ffffffffffffffff82111715620016d257620016d1620019b7565b5b8060405250919050565b600067ffffffffffffffff821115620016fa57620016f9620019b7565b5b601f19601f8301169050602081019050919050565b600081519050919050565b600082825260208201905092915050565b600082825260208201905092915050565b6000620017498262001895565b9150620017568362001895565b9250827fffffffffffffffffffffffffffffffffffffffffffffffffffffffffffffffff038211156200178e576200178d62001959565b5b828201905092915050565b6000620017a68262001895565b9150620017b38362001895565b9250817fffffffffffffffffffffffffffffffffffffffffffffffffffffffffffffffff0483118215151615620017ef57620017ee62001959565b5b828202905092915050565b6000620018078262001895565b9150620018148362001895565b9250828210156200182a576200182962001959565b5b828203905092915050565b6000620018428262001875565b9050919050565b60007fffffffff0000000000000000000000000000000000000000000000000000000082169050919050565b600073ffffffffffffffffffffffffffffffffffffffff82169050919050565b6000819050919050565b60005b83811015620018bf578082015181840152602081019050620018a2565b83811115620018cf576000848401525b50505050565b60006002820490506001821680620018ee57607f821691505b6020821081141562001905576200190462001988565b5b50919050565b6000620019188262001895565b91507fffffffffffffffffffffffffffffffffffffffffffffffffffffffffffffffff8214156200194e576200194d62001959565b5b600182019050919050565b7f4e487b7100000000000000000000000000000000000000000000000000000000600052601160045260246000fd5b7f4e487b7100000000000000000000000000000000000000000000000000000000600052602260045260246000fd5b7f4e487b7100000000000000000000000000000000000000000000000000000000600052604160045260246000fd5b6000601f19601f8301169050919050565b62001a028162001849565b811462001a0e57600080fd5b50565b6144618062001a216000396000f3fe6080604052600436106101f95760003560e01c80635c975abb1161010d578063a0712d68116100a0578063c87b56dd1161006f578063c87b56dd14610705578063d5abeb0114610742578063da3ef23f1461076d578063e985e9c514610796578063f2fde38b146107d3576101f9565b8063a0712d681461066c578063a22cb46514610688578063b88d4fde146106b1578063c6682862146106da576101f9565b8063715018a6116100dc578063715018a6146105d65780637f00c7a6146105ed5780638da5cb5b1461061657806395d89b4114610641576101f9565b80635c975abb146105065780636352211e146105315780636c0360eb1461056e57806370a0823114610599576101f9565b8063239c70ae1161019057806342842e0e1161015f57806342842e0e14610411578063438b63001461043a57806344a0d68a146104775780634f6ccce7146104a057806355f804b3146104dd576101f9565b8063239c70ae1461037657806323b872dd146103a15780632f745c59146103ca5780633ccfd60b14610407576101f9565b8063095ea7b3116101cc578063095ea7b3146102cc57806312065fe0146102f557806313faede61461032057806318160ddd1461034b576101f9565b806301ffc9a7146101fe57806302329a291461023b57806306fdde0314610264578063081812fc1461028f575b600080fd5b34801561020a57600080fd5b50610225600480360381019061022091906130a1565b6107fc565b6040516102329190613c31565b60405180910390f35b34801561024757600080fd5b50610262600480360381019061025d9190613078565b610876565b005b34801561027057600080fd5b5061027961090f565b6040516102869190613c4c565b60405180910390f35b34801561029b57600080fd5b506102b660048036038101906102b19190613134565b6109a1565b6040516102c39190613ba8565b60405180910390f35b3480156102d857600080fd5b506102f360048036038101906102ee919061303c565b610a26565b005b34801561030157600080fd5b5061030a610b3e565b6040516103179190613f4e565b60405180910390f35b34801561032c57600080fd5b50610335610bc2565b6040516103429190613f4e565b60405180910390f35b34801561035757600080fd5b50610360610bc8565b60405161036d9190613f4e565b60405180910390f35b34801561038257600080fd5b5061038b610bd5565b6040516103989190613f4e565b60405180910390f35b3480156103ad57600080fd5b506103c860048036038101906103c39190612f36565b610bdb565b005b3480156103d657600080fd5b506103f160048036038101906103ec919061303c565b610c3b565b6040516103fe9190613f4e565b60405180910390f35b61040f610ce0565b005b34801561041d57600080fd5b5061043860048036038101906104339190612f36565b610db3565b005b34801561044657600080fd5b50610461600480360381019061045c9190612ed1565b610dd3565b60405161046e9190613c0f565b60405180910390f35b34801561048357600080fd5b5061049e60048036038101906104999190613134565b610ecd565b005b3480156104ac57600080fd5b506104c760048036038101906104c29190613134565b610f53565b6040516104d49190613f4e565b60405180910390f35b3480156104e957600080fd5b5061050460048036038101906104ff91906130f3565b610fea565b005b34801561051257600080fd5b5061051b611080565b6040516105289190613c31565b60405180910390f35b34801561053d57600080fd5b5061055860048036038101906105539190613134565b611093565b6040516105659190613ba8565b60405180910390f35b34801561057a57600080fd5b50610583611145565b6040516105909190613c4c565b60405180910390f35b3480156105a557600080fd5b506105c060048036038101906105bb9190612ed1565b6111d3565b6040516105cd9190613f4e565b60405180910390f35b3480156105e257600080fd5b506105eb61128b565b005b3480156105f957600080fd5b50610614600480360381019061060f9190613134565b6112c6565b005b34801561062257600080fd5b5061062b61134c565b6040516106389190613ba8565b60405180910390f35b34801561064d57600080fd5b50610656611376565b6040516106639190613c4c565b60405180910390f35b61068660048036038101906106819190613134565b611408565b005b34801561069457600080fd5b506106af60048036038101906106aa9190613000565b61161c565b005b3480156106bd57600080fd5b506106d860048036038101906106d39190612f85565b61179d565b005b3480156106e657600080fd5b506106ef6117ff565b6040516106fc9190613c4c565b60405180910390f35b34801561071157600080fd5b5061072c60048036038101906107279190613134565b61188d565b6040516107399190613c4c565b60405180910390f35b34801561074e57600080fd5b50610757611937565b6040516107649190613f4e565b60405180910390f35b34801561077957600080fd5b50610794600480360381019061078f91906130f3565b61193d565b005b3480156107a257600080fd5b506107bd60048036038101906107b89190612efa565b6119d3565b6040516107ca9190613c31565b60405180910390f35b3480156107df57600080fd5b506107fa60048036038101906107f59190612ed1565b611a67565b005b60007f780e9d63000000000000000000000000000000000000000000000000000000007bffffffffffffffffffffffffffffffffffffffffffffffffffffffff1916827bffffffffffffffffffffffffffffffffffffffffffffffffffffffff1916148061086f575061086e82611b77565b5b9050919050565b61087e611c59565b73ffffffffffffffffffffffffffffffffffffffff1661089c61134c565b73ffffffffffffffffffffffffffffffffffffffff16146108f2576040517f08c379a00000000000000000000000000000000000000000000000000000000081526004016108e990613e4e565b60405180910390fd5b80601060006101000a81548160ff02191690831515021790555050565b60606000805461091e90614256565b80601f016020809104026020016040519081016040528092919081815260200182805461094a90614256565b80156109975780601f1061096c57610100808354040283529160200191610997565b820191906000526020600020905b81548152906001019060200180831161097a57829003601f168201915b5050505050905090565b60006109ac82611c61565b6109eb576040517f08c379a00000000000000000000000000000000000000000000000000000000081526004016109e290613e2e565b60405180910390fd5b6004600083815260200190815260200160002060009054906101000a900473ffffffffffffffffffffffffffffffffffffffff169050919050565b6000610a3182611093565b90508073ffffffffffffffffffffffffffffffffffffffff168373ffffffffffffffffffffffffffffffffffffffff161415610aa2576040517f08c379a0000000000000000000000000000000000000000000000000000000008152600401610a9990613ece565b60405180910390fd5b8073ffffffffffffffffffffffffffffffffffffffff16610ac1611c59565b73ffffffffffffffffffffffffffffffffffffffff161480610af05750610aef81610aea611c59565b6119d3565b5b610b2f576040517f08c379a0000000000000000000000000000000000000000000000000000000008152600401610b2690613d8e565b60405180910390fd5b610b398383611ccd565b505050565b6000610b48611c59565b73ffffffffffffffffffffffffffffffffffffffff16610b6661134c565b73ffffffffffffffffffffffffffffffffffffffff1614610bbc576040517f08c379a0000000000000000000000000000000000000000000000000000000008152600401610bb390613e4e565b60405180910390fd5b47905090565b600d5481565b6000600880549050905090565b600f5481565b610bec610be6611c59565b82611d86565b610c2b576040517f08c379a0000000000000000000000000000000000000000000000000000000008152600401610c2290613eee565b60405180910390fd5b610c36838383611e64565b505050565b6000610c46836111d3565b8210610c87576040517f08c379a0000000000000000000000000000000000000000000000000000000008152600401610c7e90613c8e565b60405180910390fd5b600660008473ffffffffffffffffffffffffffffffffffffffff1673ffffffffffffffffffffffffffffffffffffffff168152602001908152602001600020600083815260200190815260200160002054905092915050565b610ce8611c59565b73ffffffffffffffffffffffffffffffffffffffff16610d0661134c565b73ffffffffffffffffffffffffffffffffffffffff1614610d5c576040517f08c379a0000000000000000000000000000000000000000000000000000000008152600401610d5390613e4e565b60405180910390fd5b610d6461134c565b73ffffffffffffffffffffffffffffffffffffffff166108fc610d85610b3e565b9081150290604051600060405180830381858888f19350505050158015610db0573d6000803e3d6000fd5b50565b610dce8383836040518060200160405280600081525061179d565b505050565b60606000610de0836111d3565b905060008167ffffffffffffffff811115610e24577f4e487b7100000000000000000000000000000000000000000000000000000000600052604160045260246000fd5b604051908082528060200260200182016040528015610e525781602001602082028036833780820191505090505b50905060005b82811015610ec257610e6a8582610c3b565b828281518110610ea3577f4e487b7100000000000000000000000000000000000000000000000000000000600052603260045260246000fd5b6020026020010181815250508080610eba90614288565b915050610e58565b508092505050919050565b610ed5611c59565b73ffffffffffffffffffffffffffffffffffffffff16610ef361134c565b73ffffffffffffffffffffffffffffffffffffffff1614610f49576040517f08c379a0000000000000000000000000000000000000000000000000000000008152600401610f4090613e4e565b60405180910390fd5b80600d8190555050565b6000610f5d610bc8565b8210610f9e576040517f08c379a0000000000000000000000000000000000000000000000000000000008152600401610f9590613f2e565b60405180910390fd5b60088281548110610fd8577f4e487b7100000000000000000000000000000000000000000000000000000000600052603260045260246000fd5b90600052602060002001549050919050565b610ff2611c59565b73ffffffffffffffffffffffffffffffffffffffff1661101061134c565b73ffffffffffffffffffffffffffffffffffffffff1614611066576040517f08c379a000000000000000000000000000000000000000000000000000000000815260040161105d90613e4e565b60405180910390fd5b80600b908051906020019061107c929190612cf5565b5050565b601060009054906101000a900460ff1681565b6000806002600084815260200190815260200160002060009054906101000a900473ffffffffffffffffffffffffffffffffffffffff169050600073ffffffffffffffffffffffffffffffffffffffff168173ffffffffffffffffffffffffffffffffffffffff16141561113c576040517f08c379a000000000000000000000000000000000000000000000000000000000815260040161113390613dce565b60405180910390fd5b80915050919050565b600b805461115290614256565b80601f016020809104026020016040519081016040528092919081815260200182805461117e90614256565b80156111cb5780601f106111a0576101008083540402835291602001916111cb565b820191906000526020600020905b8154815290600101906020018083116111ae57829003601f168201915b505050505081565b60008073ffffffffffffffffffffffffffffffffffffffff168273ffffffffffffffffffffffffffffffffffffffff161415611244576040517f08c379a000000000000000000000000000000000000000000000000000000000815260040161123b90613dae565b60405180910390fd5b600360008373ffffffffffffffffffffffffffffffffffffffff1673ffffffffffffffffffffffffffffffffffffffff168152602001908152602001600020549050919050565b6040517f08c379a00000000000000000000000000000000000000000000000000000000081526004016112bd90613d6e565b60405180910390fd5b6112ce611c59565b73ffffffffffffffffffffffffffffffffffffffff166112ec61134c565b73ffffffffffffffffffffffffffffffffffffffff1614611342576040517f08c379a000000000000000000000000000000000000000000000000000000000815260040161133990613e4e565b60405180910390fd5b80600f8190555050565b6000600a60009054906101000a900473ffffffffffffffffffffffffffffffffffffffff16905090565b60606001805461138590614256565b80601f01602080910402602001604051908101604052809291908181526020018280546113b190614256565b80156113fe5780601f106113d3576101008083540402835291602001916113fe565b820191906000526020600020905b8154815290600101906020018083116113e157829003601f168201915b5050505050905090565b6000611412610bc8565b9050601060009054906101000a900460ff1615611464576040517f08c379a000000000000000000000000000000000000000000000000000000000815260040161145b90613e0e565b60405180910390fd5b600082116114a7576040517f08c379a000000000000000000000000000000000000000000000000000000000815260040161149e90613c6e565b60405180910390fd5b600e5482826114b6919061408b565b11156114f7576040517f08c379a00000000000000000000000000000000000000000000000000000000081526004016114ee90613f0e565b60405180910390fd5b6114ff61134c565b73ffffffffffffffffffffffffffffffffffffffff163373ffffffffffffffffffffffffffffffffffffffff16146115a457600f548261153e336111d3565b611548919061408b565b1115611589576040517f08c379a000000000000000000000000000000000000000000000000000000000815260040161158090613eae565b60405180910390fd5b81600d546115979190614112565b3410156115a357600080fd5b5b6000600190505b82811161161757600081836115c0919061408b565b90506115cc33826120c0565b7f083abd596c375c52fc39a721bb217ecce465c6ff0c5f1a2d1fdb9b27669686dd816040516115fb9190613f4e565b60405180910390a150808061160f90614288565b9150506115ab565b505050565b611624611c59565b73ffffffffffffffffffffffffffffffffffffffff168273ffffffffffffffffffffffffffffffffffffffff161415611692576040517f08c379a000000000000000000000000000000000000000000000000000000000815260040161168990613d2e565b60405180910390fd5b806005600061169f611c59565b73ffffffffffffffffffffffffffffffffffffffff1673ffffffffffffffffffffffffffffffffffffffff16815260200190815260200160002060008473ffffffffffffffffffffffffffffffffffffffff1673ffffffffffffffffffffffffffffffffffffffff16815260200190815260200160002060006101000a81548160ff0219169083151502179055508173ffffffffffffffffffffffffffffffffffffffff1661174c611c59565b73ffffffffffffffffffffffffffffffffffffffff167f17307eab39ab6107e8899845ad3d59bd9653f200f220920489ca2b5937696c31836040516117919190613c31565b60405180910390a35050565b6117ae6117a8611c59565b83611d86565b6117ed576040517f08c379a00000000000000000000000000000000000000000000000000000000081526004016117e490613eee565b60405180910390fd5b6117f9848484846120de565b50505050565b600c805461180c90614256565b80601f016020809104026020016040519081016040528092919081815260200182805461183890614256565b80156118855780601f1061185a57610100808354040283529160200191611885565b820191906000526020600020905b81548152906001019060200180831161186857829003601f168201915b505050505081565b606061189882611c61565b6118d7576040517f08c379a00000000000000000000000000000000000000000000000000000000081526004016118ce90613e8e565b60405180910390fd5b60006118e161213a565b90506000815111611901576040518060200160405280600081525061192f565b8061190b846121cc565b600c60405160200161191f93929190613b77565b6040516020818303038152906040525b915050919050565b600e5481565b611945611c59565b73ffffffffffffffffffffffffffffffffffffffff1661196361134c565b73ffffffffffffffffffffffffffffffffffffffff16146119b9576040517f08c379a00000000000000000000000000000000000000000000000000000000081526004016119b090613e4e565b60405180910390fd5b80600c90805190602001906119cf929190612cf5565b5050565b6000600560008473ffffffffffffffffffffffffffffffffffffffff1673ffffffffffffffffffffffffffffffffffffffff16815260200190815260200160002060008373ffffffffffffffffffffffffffffffffffffffff1673ffffffffffffffffffffffffffffffffffffffff16815260200190815260200160002060009054906101000a900460ff16905092915050565b611a6f611c59565b73ffffffffffffffffffffffffffffffffffffffff16611a8d61134c565b73ffffffffffffffffffffffffffffffffffffffff1614611ae3576040517f08c379a0000000000000000000000000000000000000000000000000000000008152600401611ada90613e4e565b60405180910390fd5b600073ffffffffffffffffffffffffffffffffffffffff168173ffffffffffffffffffffffffffffffffffffffff161415611b53576040517f08c379a0000000000000000000000000000000000000000000000000000000008152600401611b4a90613cce565b60405180910390fd5b611b5c81612379565b50565b600080823b905060008111915050919050565b505050565b60007f80ac58cd000000000000000000000000000000000000000000000000000000007bffffffffffffffffffffffffffffffffffffffffffffffffffffffff1916827bffffffffffffffffffffffffffffffffffffffffffffffffffffffff19161480611c4257507f5b5e139f000000000000000000000000000000000000000000000000000000007bffffffffffffffffffffffffffffffffffffffffffffffffffffffff1916827bffffffffffffffffffffffffffffffffffffffffffffffffffffffff1916145b80611c525750611c518261243f565b5b9050919050565b600033905090565b60008073ffffffffffffffffffffffffffffffffffffffff166002600084815260200190815260200160002060009054906101000a900473ffffffffffffffffffffffffffffffffffffffff1673ffffffffffffffffffffffffffffffffffffffff1614159050919050565b816004600083815260200190815260200160002060006101000a81548173ffffffffffffffffffffffffffffffffffffffff021916908373ffffffffffffffffffffffffffffffffffffffff160217905550808273ffffffffffffffffffffffffffffffffffffffff16611d4083611093565b73ffffffffffffffffffffffffffffffffffffffff167f8c5be1e5ebec7d5bd14f71427d1e84f3dd0314c0f7b2291e5b200ac8c7c3b92560405160405180910390a45050565b6000611d9182611c61565b611dd0576040517f08c379a0000000000000000000000000000000000000000000000000000000008152600401611dc790613d4e565b60405180910390fd5b6000611ddb83611093565b90508073ffffffffffffffffffffffffffffffffffffffff168473ffffffffffffffffffffffffffffffffffffffff161480611e4a57508373ffffffffffffffffffffffffffffffffffffffff16611e32846109a1565b73ffffffffffffffffffffffffffffffffffffffff16145b80611e5b5750611e5a81856119d3565b5b91505092915050565b8273ffffffffffffffffffffffffffffffffffffffff16611e8482611093565b73ffffffffffffffffffffffffffffffffffffffff1614611eda576040517f08c379a0000000000000000000000000000000000000000000000000000000008152600401611ed190613e6e565b60405180910390fd5b600073ffffffffffffffffffffffffffffffffffffffff168273ffffffffffffffffffffffffffffffffffffffff161415611f4a576040517f08c379a0000000000000000000000000000000000000000000000000000000008152600401611f4190613d0e565b60405180910390fd5b611f558383836124a9565b611f60600082611ccd565b6001600360008573ffffffffffffffffffffffffffffffffffffffff1673ffffffffffffffffffffffffffffffffffffffff1681526020019081526020016000206000828254611fb0919061416c565b925050819055506001600360008473ffffffffffffffffffffffffffffffffffffffff1673ffffffffffffffffffffffffffffffffffffffff1681526020019081526020016000206000828254612007919061408b565b92505081905550816002600083815260200190815260200160002060006101000a81548173ffffffffffffffffffffffffffffffffffffffff021916908373ffffffffffffffffffffffffffffffffffffffff160217905550808273ffffffffffffffffffffffffffffffffffffffff168473ffffffffffffffffffffffffffffffffffffffff167fddf252ad1be2c89b69c2b068fc378daa952ba7f163c4a11628f55a4df523b3ef60405160405180910390a4505050565b6120da8282604051806020016040528060008152506125bd565b5050565b6120e9848484611e64565b6120f584848484612618565b612134576040517f08c379a000000000000000000000000000000000000000000000000000000000815260040161212b90613cae565b60405180910390fd5b50505050565b6060600b805461214990614256565b80601f016020809104026020016040519081016040528092919081815260200182805461217590614256565b80156121c25780601f10612197576101008083540402835291602001916121c2565b820191906000526020600020905b8154815290600101906020018083116121a557829003601f168201915b5050505050905090565b60606000821415612214576040518060400160405280600181526020017f30000000000000000000000000000000000000000000000000000000000000008152509050612374565b600082905060005b6000821461224657808061222f90614288565b915050600a8261223f91906140e1565b915061221c565b60008167ffffffffffffffff811115612288577f4e487b7100000000000000000000000000000000000000000000000000000000600052604160045260246000fd5b6040519080825280601f01601f1916602001820160405280156122ba5781602001600182028036833780820191505090505b5090505b6000851461236d576001826122d3919061416c565b9150600a856122e291906142d1565b60306122ee919061408b565b60f81b81838151811061232a577f4e487b7100000000000000000000000000000000000000000000000000000000600052603260045260246000fd5b60200101907effffffffffffffffffffffffffffffffffffffffffffffffffffffffffffff1916908160001a905350600a8561236691906140e1565b94506122be565b8093505050505b919050565b6000600a60009054906101000a900473ffffffffffffffffffffffffffffffffffffffff16905081600a60006101000a81548173ffffffffffffffffffffffffffffffffffffffff021916908373ffffffffffffffffffffffffffffffffffffffff1602179055508173ffffffffffffffffffffffffffffffffffffffff168173ffffffffffffffffffffffffffffffffffffffff167f8be0079c531659141344cd1fd0a4f28419497f9722a3daafe3b4186f6b6457e060405160405180910390a35050565b60007f01ffc9a7000000000000000000000000000000000000000000000000000000007bffffffffffffffffffffffffffffffffffffffffffffffffffffffff1916827bffffffffffffffffffffffffffffffffffffffffffffffffffffffff1916149050919050565b6124b4838383611b72565b600073ffffffffffffffffffffffffffffffffffffffff168373ffffffffffffffffffffffffffffffffffffffff1614156124f7576124f2816127af565b612536565b8173ffffffffffffffffffffffffffffffffffffffff168373ffffffffffffffffffffffffffffffffffffffff16146125355761253483826127f8565b5b5b600073ffffffffffffffffffffffffffffffffffffffff168273ffffffffffffffffffffffffffffffffffffffff1614156125795761257481612965565b6125b8565b8273ffffffffffffffffffffffffffffffffffffffff168273ffffffffffffffffffffffffffffffffffffffff16146125b7576125b68282612aa8565b5b5b505050565b6125c78383612b27565b6125d46000848484612618565b612613576040517f08c379a000000000000000000000000000000000000000000000000000000000815260040161260a90613cae565b60405180910390fd5b505050565b60006126398473ffffffffffffffffffffffffffffffffffffffff16611b5f565b156127a2578373ffffffffffffffffffffffffffffffffffffffff1663150b7a02612662611c59565b8786866040518563ffffffff1660e01b81526004016126849493929190613bc3565b602060405180830381600087803b15801561269e57600080fd5b505af19250505080156126cf57506040513d601f19601f820116820180604052508101906126cc91906130ca565b60015b612752573d80600081146126ff576040519150601f19603f3d011682016040523d82523d6000602084013e612704565b606091505b5060008151141561274a576040517f08c379a000000000000000000000000000000000000000000000000000000000815260040161274190613cae565b60405180910390fd5b805181602001fd5b63150b7a0260e01b7bffffffffffffffffffffffffffffffffffffffffffffffffffffffff1916817bffffffffffffffffffffffffffffffffffffffffffffffffffffffff1916149150506127a7565b600190505b949350505050565b6008805490506009600083815260200190815260200160002081905550600881908060018154018082558091505060019003906000526020600020016000909190919091505550565b60006001612805846111d3565b61280f919061416c565b90506000600760008481526020019081526020016000205490508181146128f4576000600660008673ffffffffffffffffffffffffffffffffffffffff1673ffffffffffffffffffffffffffffffffffffffff168152602001908152602001600020600084815260200190815260200160002054905080600660008773ffffffffffffffffffffffffffffffffffffffff1673ffffffffffffffffffffffffffffffffffffffff168152602001908152602001600020600084815260200190815260200160002081905550816007600083815260200190815260200160002081905550505b6007600084815260200190815260200160002060009055600660008573ffffffffffffffffffffffffffffffffffffffff1673ffffffffffffffffffffffffffffffffffffffff16815260200190815260200160002060008381526020019081526020016000206000905550505050565b60006001600880549050612979919061416c565b90506000600960008481526020019081526020016000205490506000600883815481106129cf577f4e487b7100000000000000000000000000000000000000000000000000000000600052603260045260246000fd5b906000526020600020015490508060088381548110612a17577f4e487b7100000000000000000000000000000000000000000000000000000000600052603260045260246000fd5b906000526020600020018190555081600960008381526020019081526020016000208190555060096000858152602001908152602001600020600090556008805480612a8c577f4e487b7100000000000000000000000000000000000000000000000000000000600052603160045260246000fd5b6001900381819060005260206000200160009055905550505050565b6000612ab3836111d3565b905081600660008573ffffffffffffffffffffffffffffffffffffffff1673ffffffffffffffffffffffffffffffffffffffff168152602001908152602001600020600083815260200190815260200160002081905550806007600084815260200190815260200160002081905550505050565b600073ffffffffffffffffffffffffffffffffffffffff168273ffffffffffffffffffffffffffffffffffffffff161415612b97576040517f08c379a0000000000000000000000000000000000000000000000000000000008152600401612b8e90613dee565b60405180910390fd5b612ba081611c61565b15612be0576040517f08c379a0000000000000000000000000000000000000000000000000000000008152600401612bd790613cee565b60405180910390fd5b612bec600083836124a9565b6001600360008473ffffffffffffffffffffffffffffffffffffffff1673ffffffffffffffffffffffffffffffffffffffff1681526020019081526020016000206000828254612c3c919061408b565b92505081905550816002600083815260200190815260200160002060006101000a81548173ffffffffffffffffffffffffffffffffffffffff021916908373ffffffffffffffffffffffffffffffffffffffff160217905550808273ffffffffffffffffffffffffffffffffffffffff16600073ffffffffffffffffffffffffffffffffffffffff167fddf252ad1be2c89b69c2b068fc378daa952ba7f163c4a11628f55a4df523b3ef60405160405180910390a45050565b828054612d0190614256565b90600052602060002090601f016020900481019282612d235760008555612d6a565b82601f10612d3c57805160ff1916838001178555612d6a565b82800160010185558215612d6a579182015b82811115612d69578251825591602001919060010190612d4e565b5b509050612d779190612d7b565b5090565b5b80821115612d94576000816000905550600101612d7c565b5090565b6000612dab612da684613f9a565b613f69565b905082815260208101848484011115612dc357600080fd5b612dce848285614214565b509392505050565b6000612de9612de484613fca565b613f69565b905082815260208101848484011115612e0157600080fd5b612e0c848285614214565b509392505050565b600081359050612e23816143cf565b92915050565b600081359050612e38816143e6565b92915050565b600081359050612e4d816143fd565b92915050565b600081519050612e62816143fd565b92915050565b600082601f830112612e7957600080fd5b8135612e89848260208601612d98565b91505092915050565b600082601f830112612ea357600080fd5b8135612eb3848260208601612dd6565b91505092915050565b600081359050612ecb81614414565b92915050565b600060208284031215612ee357600080fd5b6000612ef184828501612e14565b91505092915050565b60008060408385031215612f0d57600080fd5b6000612f1b85828601612e14565b9250506020612f2c85828601612e14565b9150509250929050565b600080600060608486031215612f4b57600080fd5b6000612f5986828701612e14565b9350506020612f6a86828701612e14565b9250506040612f7b86828701612ebc565b9150509250925092565b60008060008060808587031215612f9b57600080fd5b6000612fa987828801612e14565b9450506020612fba87828801612e14565b9350506040612fcb87828801612ebc565b925050606085013567ffffffffffffffff811115612fe857600080fd5b612ff487828801612e68565b91505092959194509250565b6000806040838503121561301357600080fd5b600061302185828601612e14565b925050602061303285828601612e29565b9150509250929050565b6000806040838503121561304f57600080fd5b600061305d85828601612e14565b925050602061306e85828601612ebc565b9150509250929050565b60006020828403121561308a57600080fd5b600061309884828501612e29565b91505092915050565b6000602082840312156130b357600080fd5b60006130c184828501612e3e565b91505092915050565b6000602082840312156130dc57600080fd5b60006130ea84828501612e53565b91505092915050565b60006020828403121561310557600080fd5b600082013567ffffffffffffffff81111561311f57600080fd5b61312b84828501612e92565b91505092915050565b60006020828403121561314657600080fd5b600061315484828501612ebc565b91505092915050565b60006131698383613b59565b60208301905092915050565b61317e816141a0565b82525050565b600061318f8261401f565b613199818561404d565b93506131a483613ffa565b8060005b838110156131d55781516131bc888261315d565b97506131c783614040565b9250506001810190506131a8565b5085935050505092915050565b6131eb816141b2565b82525050565b60006131fc8261402a565b613206818561405e565b9350613216818560208601614223565b61321f816143be565b840191505092915050565b600061323582614035565b61323f818561406f565b935061324f818560208601614223565b613258816143be565b840191505092915050565b600061326e82614035565b6132788185614080565b9350613288818560208601614223565b80840191505092915050565b600081546132a181614256565b6132ab8186614080565b945060018216600081146132c657600181146132d75761330a565b60ff1983168652818601935061330a565b6132e08561400a565b60005b83811015613302578154818901526001820191506020810190506132e3565b838801955050505b50505092915050565b600061332060258361406f565b91507f4d696e7420616d6f756e742068617320746f206265206772656174657220746860008301527f656e20302e0000000000000000000000000000000000000000000000000000006020830152604082019050919050565b6000613386602b8361406f565b91507f455243373231456e756d657261626c653a206f776e657220696e646578206f7560008301527f74206f6620626f756e64730000000000000000000000000000000000000000006020830152604082019050919050565b60006133ec60328361406f565b91507f4552433732313a207472616e7366657220746f206e6f6e20455243373231526560008301527f63656976657220696d706c656d656e74657200000000000000000000000000006020830152604082019050919050565b600061345260268361406f565b91507f4f776e61626c653a206e6577206f776e657220697320746865207a65726f206160008301527f64647265737300000000000000000000000000000000000000000000000000006020830152604082019050919050565b60006134b8601c8361406f565b91507f4552433732313a20746f6b656e20616c7265616479206d696e746564000000006000830152602082019050919050565b60006134f860248361406f565b91507f4552433732313a207472616e7366657220746f20746865207a65726f2061646460008301527f72657373000000000000000000000000000000000000000000000000000000006020830152604082019050919050565b600061355e60198361406f565b91507f4552433732313a20617070726f766520746f2063616c6c6572000000000000006000830152602082019050919050565b600061359e602c8361406f565b91507f4552433732313a206f70657261746f7220717565727920666f72206e6f6e657860008301527f697374656e7420746f6b656e00000000000000000000000000000000000000006020830152604082019050919050565b6000613604601d8361406f565b91507f43616e27742072656e6f756e6365206f776e65727368697020686572650000006000830152602082019050919050565b600061364460388361406f565b91507f4552433732313a20617070726f76652063616c6c6572206973206e6f74206f7760008301527f6e6572206e6f7220617070726f76656420666f7220616c6c00000000000000006020830152604082019050919050565b60006136aa602a8361406f565b91507f4552433732313a2062616c616e636520717565727920666f7220746865207a6560008301527f726f2061646472657373000000000000000000000000000000000000000000006020830152604082019050919050565b600061371060298361406f565b91507f4552433732313a206f776e657220717565727920666f72206e6f6e657869737460008301527f656e7420746f6b656e00000000000000000000000000000000000000000000006020830152604082019050919050565b600061377660208361406f565b91507f4552433732313a206d696e7420746f20746865207a65726f20616464726573736000830152602082019050919050565b60006137b6601a8361406f565b91507f436f6e74726163742063616e6e6f74206265207061757365642e0000000000006000830152602082019050919050565b60006137f6602c8361406f565b91507f4552433732313a20617070726f76656420717565727920666f72206e6f6e657860008301527f697374656e7420746f6b656e00000000000000000000000000000000000000006020830152604082019050919050565b600061385c60208361406f565b91507f4f776e61626c653a2063616c6c6572206973206e6f7420746865206f776e65726000830152602082019050919050565b600061389c60298361406f565b91507f4552433732313a207472616e73666572206f6620746f6b656e2074686174206960008301527f73206e6f74206f776e00000000000000000000000000000000000000000000006020830152604082019050919050565b6000613902602f8361406f565b91507f4552433732314d657461646174613a2055524920717565727920666f72206e6f60008301527f6e6578697374656e7420746f6b656e00000000000000000000000000000000006020830152604082019050919050565b6000613968601e8361406f565b91507f596f752063616e206f6e6c79207075726368617365203320746f6b656e7300006000830152602082019050919050565b60006139a860218361406f565b91507f4552433732313a20617070726f76616c20746f2063757272656e74206f776e6560008301527f72000000000000000000000000000000000000000000000000000000000000006020830152604082019050919050565b6000613a0e60318361406f565b91507f4552433732313a207472616e736665722063616c6c6572206973206e6f74206f60008301527f776e6572206e6f7220617070726f7665640000000000000000000000000000006020830152604082019050919050565b6000613a7460588361406f565b91507f5468652063757272656e7420737570706c7920706c757320796f7572206d696e60008301527f7420616d6f756e742068617320746f206265206c657373207468656e206f722060208301527f657175616c20746f20746865206d617820737570706c792e00000000000000006040830152606082019050919050565b6000613b00602c8361406f565b91507f455243373231456e756d657261626c653a20676c6f62616c20696e646578206f60008301527f7574206f6620626f756e647300000000000000000000000000000000000000006020830152604082019050919050565b613b628161420a565b82525050565b613b718161420a565b82525050565b6000613b838286613263565b9150613b8f8285613263565b9150613b9b8284613294565b9150819050949350505050565b6000602082019050613bbd6000830184613175565b92915050565b6000608082019050613bd86000830187613175565b613be56020830186613175565b613bf26040830185613b68565b8181036060830152613c0481846131f1565b905095945050505050565b60006020820190508181036000830152613c298184613184565b905092915050565b6000602082019050613c4660008301846131e2565b92915050565b60006020820190508181036000830152613c66818461322a565b905092915050565b60006020820190508181036000830152613c8781613313565b9050919050565b60006020820190508181036000830152613ca781613379565b9050919050565b60006020820190508181036000830152613cc7816133df565b9050919050565b60006020820190508181036000830152613ce781613445565b9050919050565b60006020820190508181036000830152613d07816134ab565b9050919050565b60006020820190508181036000830152613d27816134eb565b9050919050565b60006020820190508181036000830152613d4781613551565b9050919050565b60006020820190508181036000830152613d6781613591565b9050919050565b60006020820190508181036000830152613d87816135f7565b9050919050565b60006020820190508181036000830152613da781613637565b9050919050565b60006020820190508181036000830152613dc78161369d565b9050919050565b60006020820190508181036000830152613de781613703565b9050919050565b60006020820190508181036000830152613e0781613769565b9050919050565b60006020820190508181036000830152613e27816137a9565b9050919050565b60006020820190508181036000830152613e47816137e9565b9050919050565b60006020820190508181036000830152613e678161384f565b9050919050565b60006020820190508181036000830152613e878161388f565b9050919050565b60006020820190508181036000830152613ea7816138f5565b9050919050565b60006020820190508181036000830152613ec78161395b565b9050919050565b60006020820190508181036000830152613ee78161399b565b9050919050565b60006020820190508181036000830152613f0781613a01565b9050919050565b60006020820190508181036000830152613f2781613a67565b9050919050565b60006020820190508181036000830152613f4781613af3565b9050919050565b6000602082019050613f636000830184613b68565b92915050565b6000604051905081810181811067ffffffffffffffff82111715613f9057613f8f61438f565b5b8060405250919050565b600067ffffffffffffffff821115613fb557613fb461438f565b5b601f19601f8301169050602081019050919050565b600067ffffffffffffffff821115613fe557613fe461438f565b5b601f19601f8301169050602081019050919050565b6000819050602082019050919050565b60008190508160005260206000209050919050565b600081519050919050565b600081519050919050565b600081519050919050565b6000602082019050919050565b600082825260208201905092915050565b600082825260208201905092915050565b600082825260208201905092915050565b600081905092915050565b60006140968261420a565b91506140a18361420a565b9250827fffffffffffffffffffffffffffffffffffffffffffffffffffffffffffffffff038211156140d6576140d5614302565b5b828201905092915050565b60006140ec8261420a565b91506140f78361420a565b92508261410757614106614331565b5b828204905092915050565b600061411d8261420a565b91506141288361420a565b9250817fffffffffffffffffffffffffffffffffffffffffffffffffffffffffffffffff048311821515161561416157614160614302565b5b828202905092915050565b60006141778261420a565b91506141828361420a565b92508282101561419557614194614302565b5b828203905092915050565b60006141ab826141ea565b9050919050565b60008115159050919050565b60007fffffffff0000000000000000000000000000000000000000000000000000000082169050919050565b600073ffffffffffffffffffffffffffffffffffffffff82169050919050565b6000819050919050565b82818337600083830152505050565b60005b83811015614241578082015181840152602081019050614226565b83811115614250576000848401525b50505050565b6000600282049050600182168061426e57607f821691505b6020821081141561428257614281614360565b5b50919050565b60006142938261420a565b91507fffffffffffffffffffffffffffffffffffffffffffffffffffffffffffffffff8214156142c6576142c5614302565b5b600182019050919050565b60006142dc8261420a565b91506142e78361420a565b9250826142f7576142f6614331565b5b828206905092915050565b7f4e487b7100000000000000000000000000000000000000000000000000000000600052601160045260246000fd5b7f4e487b7100000000000000000000000000000000000000000000000000000000600052601260045260246000fd5b7f4e487b7100000000000000000000000000000000000000000000000000000000600052602260045260246000fd5b7f4e487b7100000000000000000000000000000000000000000000000000000000600052604160045260246000fd5b6000601f19601f8301169050919050565b6143d8816141a0565b81146143e357600080fd5b50565b6143ef816141b2565b81146143fa57600080fd5b50565b614406816141be565b811461441157600080fd5b50565b61441d8161420a565b811461442857600080fd5b5056fea2646970667358221220ff02b4cd90ced462e09339d048b05d630909ef8d776ea1e18c3026ee937453bd64736f6c63430008000033",
  "linkReferences": {},
  "deployedLinkReferences": {}
}