{
  "_format": "hh-sol-artifact-1",
  "contractName": "CryptoHermits",
  "sourceName": "contracts/CryptoHermits.sol",
  "abi": [
    {
      "inputs": [
        {
          "internalType": "string",
          "name": "_name",
          "type": "string"
        },
        {
          "internalType": "string",
          "name": "_symbol",
          "type": "string"
        },
        {
          "internalType": "string",
          "name": "_initBaseURI",
          "type": "string"
        }
      ],
      "stateMutability": "nonpayable",
      "type": "constructor"
    },
    {
      "anonymous": false,
      "inputs": [
        {
          "indexed": true,
          "internalType": "address",
          "name": "owner",
          "type": "address"
        },
        {
          "indexed": true,
          "internalType": "address",
          "name": "approved",
          "type": "address"
        },
        {
          "indexed": true,
          "internalType": "uint256",
          "name": "tokenId",
          "type": "uint256"
        }
      ],
      "name": "Approval",
      "type": "event"
    },
    {
      "anonymous": false,
      "inputs": [
        {
          "indexed": true,
          "internalType": "address",
          "name": "owner",
          "type": "address"
        },
        {
          "indexed": true,
          "internalType": "address",
          "name": "operator",
          "type": "address"
        },
        {
          "indexed": false,
          "internalType": "bool",
          "name": "approved",
          "type": "bool"
        }
      ],
      "name": "ApprovalForAll",
      "type": "event"
    },
    {
      "anonymous": false,
      "inputs": [
        {
          "indexed": true,
          "internalType": "address",
          "name": "previousOwner",
          "type": "address"
        },
        {
          "indexed": true,
          "internalType": "address",
          "name": "newOwner",
          "type": "address"
        }
      ],
      "name": "OwnershipTransferred",
      "type": "event"
    },
    {
      "anonymous": false,
      "inputs": [
        {
          "indexed": true,
          "internalType": "address",
          "name": "from",
          "type": "address"
        },
        {
          "indexed": true,
          "internalType": "address",
          "name": "to",
          "type": "address"
        },
        {
          "indexed": true,
          "internalType": "uint256",
          "name": "tokenId",
          "type": "uint256"
        }
      ],
      "name": "Transfer",
      "type": "event"
    },
    {
      "anonymous": false,
      "inputs": [
        {
          "indexed": false,
          "internalType": "uint256",
          "name": "_newTokenId",
          "type": "uint256"
        }
      ],
      "name": "printNewTokenId",
      "type": "event"
    },
    {
      "inputs": [
        {
          "internalType": "address",
          "name": "to",
          "type": "address"
        },
        {
          "internalType": "uint256",
          "name": "tokenId",
          "type": "uint256"
        }
      ],
      "name": "approve",
      "outputs": [],
      "stateMutability": "nonpayable",
      "type": "function"
    },
    {
      "inputs": [
        {
          "internalType": "address",
          "name": "owner",
          "type": "address"
        }
      ],
      "name": "balanceOf",
      "outputs": [
        {
          "internalType": "uint256",
          "name": "",
          "type": "uint256"
        }
      ],
      "stateMutability": "view",
      "type": "function"
    },
    {
      "inputs": [],
      "name": "baseExtension",
      "outputs": [
        {
          "internalType": "string",
          "name": "",
          "type": "string"
        }
      ],
      "stateMutability": "view",
      "type": "function"
    },
    {
      "inputs": [],
      "name": "baseURI",
      "outputs": [
        {
          "internalType": "string",
          "name": "",
          "type": "string"
        }
      ],
      "stateMutability": "view",
      "type": "function"
    },
    {
      "inputs": [],
      "name": "cost",
      "outputs": [
        {
          "internalType": "uint256",
          "name": "",
          "type": "uint256"
        }
      ],
      "stateMutability": "view",
      "type": "function"
    },
    {
      "inputs": [
        {
          "internalType": "uint256",
          "name": "tokenId",
          "type": "uint256"
        }
      ],
      "name": "getApproved",
      "outputs": [
        {
          "internalType": "address",
          "name": "",
          "type": "address"
        }
      ],
      "stateMutability": "view",
      "type": "function"
    },
    {
      "inputs": [],
      "name": "getBalance",
      "outputs": [
        {
          "internalType": "uint256",
          "name": "",
          "type": "uint256"
        }
      ],
      "stateMutability": "view",
      "type": "function"
    },
    {
      "inputs": [
        {
          "internalType": "address",
          "name": "owner",
          "type": "address"
        },
        {
          "internalType": "address",
          "name": "operator",
          "type": "address"
        }
      ],
      "name": "isApprovedForAll",
      "outputs": [
        {
          "internalType": "bool",
          "name": "",
          "type": "bool"
        }
      ],
      "stateMutability": "view",
      "type": "function"
    },
    {
      "inputs": [
        {
          "internalType": "address",
          "name": "_user",
          "type": "address"
        }
      ],
      "name": "isWhitelisted",
      "outputs": [
        {
          "internalType": "bool",
          "name": "",
          "type": "bool"
        }
      ],
      "stateMutability": "view",
      "type": "function"
    },
    {
      "inputs": [],
      "name": "maxMintAmount",
      "outputs": [
        {
          "internalType": "uint256",
          "name": "",
          "type": "uint256"
        }
      ],
      "stateMutability": "view",
      "type": "function"
    },
    {
      "inputs": [],
      "name": "maxPresaleMintAmount",
      "outputs": [
        {
          "internalType": "uint256",
          "name": "",
          "type": "uint256"
        }
      ],
      "stateMutability": "view",
      "type": "function"
    },
    {
      "inputs": [],
      "name": "maxSupply",
      "outputs": [
        {
          "internalType": "uint256",
          "name": "",
          "type": "uint256"
        }
      ],
      "stateMutability": "view",
      "type": "function"
    },
    {
      "inputs": [
        {
          "internalType": "uint256",
          "name": "_mintAmount",
          "type": "uint256"
        }
      ],
      "name": "mint",
      "outputs": [],
      "stateMutability": "payable",
      "type": "function"
    },
    {
      "inputs": [],
      "name": "name",
      "outputs": [
        {
          "internalType": "string",
          "name": "",
          "type": "string"
        }
      ],
      "stateMutability": "view",
      "type": "function"
    },
    {
      "inputs": [],
      "name": "owner",
      "outputs": [
        {
          "internalType": "address",
          "name": "",
          "type": "address"
        }
      ],
      "stateMutability": "view",
      "type": "function"
    },
    {
      "inputs": [
        {
          "internalType": "uint256",
          "name": "tokenId",
          "type": "uint256"
        }
      ],
      "name": "ownerOf",
      "outputs": [
        {
          "internalType": "address",
          "name": "",
          "type": "address"
        }
      ],
      "stateMutability": "view",
      "type": "function"
    },
    {
      "inputs": [
        {
          "internalType": "bool",
          "name": "_state",
          "type": "bool"
        }
      ],
      "name": "pause",
      "outputs": [],
      "stateMutability": "nonpayable",
      "type": "function"
    },
    {
      "inputs": [],
      "name": "paused",
      "outputs": [
        {
          "internalType": "bool",
          "name": "",
          "type": "bool"
        }
      ],
      "stateMutability": "view",
      "type": "function"
    },
    {
      "inputs": [],
      "name": "presaleActive",
      "outputs": [
        {
          "internalType": "bool",
          "name": "",
          "type": "bool"
        }
      ],
      "stateMutability": "view",
      "type": "function"
    },
    {
      "inputs": [],
      "name": "renounceOwnership",
      "outputs": [],
      "stateMutability": "pure",
      "type": "function"
    },
    {
      "inputs": [
        {
          "internalType": "address",
          "name": "from",
          "type": "address"
        },
        {
          "internalType": "address",
          "name": "to",
          "type": "address"
        },
        {
          "internalType": "uint256",
          "name": "tokenId",
          "type": "uint256"
        }
      ],
      "name": "safeTransferFrom",
      "outputs": [],
      "stateMutability": "nonpayable",
      "type": "function"
    },
    {
      "inputs": [
        {
          "internalType": "address",
          "name": "from",
          "type": "address"
        },
        {
          "internalType": "address",
          "name": "to",
          "type": "address"
        },
        {
          "internalType": "uint256",
          "name": "tokenId",
          "type": "uint256"
        },
        {
          "internalType": "bytes",
          "name": "_data",
          "type": "bytes"
        }
      ],
      "name": "safeTransferFrom",
      "outputs": [],
      "stateMutability": "nonpayable",
      "type": "function"
    },
    {
      "inputs": [
        {
          "internalType": "address",
          "name": "operator",
          "type": "address"
        },
        {
          "internalType": "bool",
          "name": "approved",
          "type": "bool"
        }
      ],
      "name": "setApprovalForAll",
      "outputs": [],
      "stateMutability": "nonpayable",
      "type": "function"
    },
    {
      "inputs": [
        {
          "internalType": "string",
          "name": "_newBaseExtension",
          "type": "string"
        }
      ],
      "name": "setBaseExtension",
      "outputs": [],
      "stateMutability": "nonpayable",
      "type": "function"
    },
    {
      "inputs": [
        {
          "internalType": "string",
          "name": "_newBaseURI",
          "type": "string"
        }
      ],
      "name": "setBaseURI",
      "outputs": [],
      "stateMutability": "nonpayable",
      "type": "function"
    },
    {
      "inputs": [
        {
          "internalType": "uint256",
          "name": "_newCost",
          "type": "uint256"
        }
      ],
      "name": "setCost",
      "outputs": [],
      "stateMutability": "nonpayable",
      "type": "function"
    },
    {
      "inputs": [
        {
          "internalType": "uint256",
          "name": "_newMaxPresaleMintAmount",
          "type": "uint256"
        }
      ],
      "name": "setMaxPresaleMintAmount",
      "outputs": [],
      "stateMutability": "nonpayable",
      "type": "function"
    },
    {
      "inputs": [
        {
          "internalType": "bool",
          "name": "_state",
          "type": "bool"
        }
      ],
      "name": "setPresaleStatus",
      "outputs": [],
      "stateMutability": "nonpayable",
      "type": "function"
    },
    {
      "inputs": [
        {
          "internalType": "uint256",
          "name": "_newMaxMintAmount",
          "type": "uint256"
        }
      ],
      "name": "setmaxMintAmount",
      "outputs": [],
      "stateMutability": "nonpayable",
      "type": "function"
    },
    {
      "inputs": [
        {
          "internalType": "bytes4",
          "name": "interfaceId",
          "type": "bytes4"
        }
      ],
      "name": "supportsInterface",
      "outputs": [
        {
          "internalType": "bool",
          "name": "",
          "type": "bool"
        }
      ],
      "stateMutability": "view",
      "type": "function"
    },
    {
      "inputs": [],
      "name": "symbol",
      "outputs": [
        {
          "internalType": "string",
          "name": "",
          "type": "string"
        }
      ],
      "stateMutability": "view",
      "type": "function"
    },
    {
      "inputs": [
        {
          "internalType": "uint256",
          "name": "index",
          "type": "uint256"
        }
      ],
      "name": "tokenByIndex",
      "outputs": [
        {
          "internalType": "uint256",
          "name": "",
          "type": "uint256"
        }
      ],
      "stateMutability": "view",
      "type": "function"
    },
    {
      "inputs": [
        {
          "internalType": "address",
          "name": "owner",
          "type": "address"
        },
        {
          "internalType": "uint256",
          "name": "index",
          "type": "uint256"
        }
      ],
      "name": "tokenOfOwnerByIndex",
      "outputs": [
        {
          "internalType": "uint256",
          "name": "",
          "type": "uint256"
        }
      ],
      "stateMutability": "view",
      "type": "function"
    },
    {
      "inputs": [
        {
          "internalType": "uint256",
          "name": "tokenId",
          "type": "uint256"
        }
      ],
      "name": "tokenURI",
      "outputs": [
        {
          "internalType": "string",
          "name": "",
          "type": "string"
        }
      ],
      "stateMutability": "view",
      "type": "function"
    },
    {
      "inputs": [],
      "name": "totalSupply",
      "outputs": [
        {
          "internalType": "uint256",
          "name": "",
          "type": "uint256"
        }
      ],
      "stateMutability": "view",
      "type": "function"
    },
    {
      "inputs": [
        {
          "internalType": "address",
          "name": "from",
          "type": "address"
        },
        {
          "internalType": "address",
          "name": "to",
          "type": "address"
        },
        {
          "internalType": "uint256",
          "name": "tokenId",
          "type": "uint256"
        }
      ],
      "name": "transferFrom",
      "outputs": [],
      "stateMutability": "nonpayable",
      "type": "function"
    },
    {
      "inputs": [
        {
          "internalType": "address",
          "name": "newOwner",
          "type": "address"
        }
      ],
      "name": "transferOwnership",
      "outputs": [],
      "stateMutability": "nonpayable",
      "type": "function"
    },
    {
      "inputs": [
        {
          "internalType": "address",
          "name": "_owner",
          "type": "address"
        }
      ],
      "name": "walletOfOwner",
      "outputs": [
        {
          "internalType": "uint256[]",
          "name": "",
          "type": "uint256[]"
        }
      ],
      "stateMutability": "view",
      "type": "function"
    },
    {
      "inputs": [
        {
          "internalType": "address[]",
          "name": "_users",
          "type": "address[]"
        }
      ],
      "name": "whitelistUsers",
      "outputs": [],
      "stateMutability": "nonpayable",
      "type": "function"
    },
    {
      "inputs": [
        {
          "internalType": "uint256",
          "name": "",
          "type": "uint256"
        }
      ],
      "name": "whitelistedAddresses",
      "outputs": [
        {
          "internalType": "address",
          "name": "",
          "type": "address"
        }
      ],
      "stateMutability": "view",
      "type": "function"
    },
    {
      "inputs": [],
      "name": "withdraw",
      "outputs": [],
      "stateMutability": "payable",
      "type": "function"
    }
  ],
  "bytecode": "0x60806040526040518060400160405280600581526020017f2e6a736f6e000000000000000000000000000000000000000000000000000000815250600c908051906020019062000051929190620011fc565b50662386f26fc10000600d55600f600e556003600f5560036010556000601160006101000a81548160ff0219169083151502179055506001601160016101000a81548160ff021916908315150217905550348015620000af57600080fd5b5060405162006b3838038062006b388339818101604052810190620000d5919062001361565b82828160009080519060200190620000ef929190620011fc565b50806001908051906020019062000108929190620011fc565b5050506200012b6200011f6200015760201b60201c565b6200015f60201b60201c565b6200013d60056200022560201b60201c565b6200014e81620005ea60201b60201c565b50505062001e1f565b600033905090565b6000600a60009054906101000a900473ffffffffffffffffffffffffffffffffffffffff16905081600a60006101000a81548173ffffffffffffffffffffffffffffffffffffffff021916908373ffffffffffffffffffffffffffffffffffffffff1602179055508173ffffffffffffffffffffffffffffffffffffffff168173ffffffffffffffffffffffffffffffffffffffff167f8be0079c531659141344cd1fd0a4f28419497f9722a3daafe3b4186f6b6457e060405160405180910390a35050565b6000620002376200069560201b60201c565b9050601160009054906101000a900460ff16156200028c576040517f08c379a00000000000000000000000000000000000000000000000000000000081526004016200028390620019cd565b60405180910390fd5b60008211620002d2576040517f08c379a0000000000000000000000000000000000000000000000000000000008152600401620002c99062001901565b60405180910390fd5b600e548282620002e3919062001b4a565b111562000327576040517f08c379a00000000000000000000000000000000000000000000000000000000081526004016200031e9062001a33565b60405180910390fd5b62000337620006a260201b60201c565b73ffffffffffffffffffffffffffffffffffffffff163373ffffffffffffffffffffffffffffffffffffffff1614620005625760011515601160019054906101000a900460ff161515141562000445576200039833620006cc60201b60201c565b620003da576040517f08c379a0000000000000000000000000000000000000000000000000000000008152600401620003d19062001a77565b60405180910390fd5b60105482620003ef33620007a860201b60201c565b620003fb919062001b4a565b11156200043f576040517f08c379a0000000000000000000000000000000000000000000000000000000008152600401620004369062001967565b60405180910390fd5b62000544565b600115156200045a33620006cc60201b60201c565b15151415620004dd57600f5460105462000475919062001b4a565b826200048733620007a860201b60201c565b62000493919062001b4a565b1115620004d7576040517f08c379a0000000000000000000000000000000000000000000000000000000008152600401620004ce9062001a55565b60405180910390fd5b62000543565b600f5482620004f233620007a860201b60201c565b620004fe919062001b4a565b111562000542576040517f08c379a0000000000000000000000000000000000000000000000000000000008152600401620005399062001a11565b60405180910390fd5b5b5b81600d5462000554919062001ba7565b3410156200056157600080fd5b5b6000600190505b828111620005e5576000818362000581919062001b4a565b90506200059533826200086360201b60201c565b7f083abd596c375c52fc39a721bb217ecce465c6ff0c5f1a2d1fdb9b27669686dd81604051620005c6919062001a99565b60405180910390a1508080620005dc9062001d19565b91505062000569565b505050565b620005fa6200015760201b60201c565b73ffffffffffffffffffffffffffffffffffffffff1662000620620006a260201b60201c565b73ffffffffffffffffffffffffffffffffffffffff161462000679576040517f08c379a00000000000000000000000000000000000000000000000000000000081526004016200067090620019ef565b60405180910390fd5b80600b908051906020019062000691929190620011fc565b5050565b6000600880549050905090565b6000600a60009054906101000a900473ffffffffffffffffffffffffffffffffffffffff16905090565b600080600090505b6012805490508110156200079d578273ffffffffffffffffffffffffffffffffffffffff166012828154811062000734577f4e487b7100000000000000000000000000000000000000000000000000000000600052603260045260246000fd5b9060005260206000200160009054906101000a900473ffffffffffffffffffffffffffffffffffffffff1673ffffffffffffffffffffffffffffffffffffffff16141562000787576001915050620007a3565b8080620007949062001d19565b915050620006d4565b50600090505b919050565b60008073ffffffffffffffffffffffffffffffffffffffff168273ffffffffffffffffffffffffffffffffffffffff1614156200081c576040517f08c379a0000000000000000000000000000000000000000000000000000000008152600401620008139062001989565b60405180910390fd5b600360008373ffffffffffffffffffffffffffffffffffffffff1673ffffffffffffffffffffffffffffffffffffffff168152602001908152602001600020549050919050565b620008858282604051806020016040528060008152506200088960201b60201c565b5050565b6200089b8383620008f760201b60201c565b620008b0600084848462000add60201b60201c565b620008f2576040517f08c379a0000000000000000000000000000000000000000000000000000000008152600401620008e99062001923565b60405180910390fd5b505050565b600073ffffffffffffffffffffffffffffffffffffffff168273ffffffffffffffffffffffffffffffffffffffff1614156200096a576040517f08c379a00000000000000000000000000000000000000000000000000000000081526004016200096190620019ab565b60405180910390fd5b6200097b8162000c9760201b60201c565b15620009be576040517f08c379a0000000000000000000000000000000000000000000000000000000008152600401620009b59062001945565b60405180910390fd5b620009d26000838362000d0360201b60201c565b6001600360008473ffffffffffffffffffffffffffffffffffffffff1673ffffffffffffffffffffffffffffffffffffffff168152602001908152602001600020600082825462000a24919062001b4a565b92505081905550816002600083815260200190815260200160002060006101000a81548173ffffffffffffffffffffffffffffffffffffffff021916908373ffffffffffffffffffffffffffffffffffffffff160217905550808273ffffffffffffffffffffffffffffffffffffffff16600073ffffffffffffffffffffffffffffffffffffffff167fddf252ad1be2c89b69c2b068fc378daa952ba7f163c4a11628f55a4df523b3ef60405160405180910390a45050565b600062000b0b8473ffffffffffffffffffffffffffffffffffffffff1662000e4a60201b620021251760201c565b1562000c8a578373ffffffffffffffffffffffffffffffffffffffff1663150b7a0262000b3d6200015760201b60201c565b8786866040518563ffffffff1660e01b815260040162000b619493929190620018ad565b602060405180830381600087803b15801562000b7c57600080fd5b505af192505050801562000bb057506040513d601f19601f8201168201806040525081019062000bad919062001335565b60015b62000c39573d806000811462000be3576040519150601f19603f3d011682016040523d82523d6000602084013e62000be8565b606091505b5060008151141562000c31576040517f08c379a000000000000000000000000000000000000000000000000000000000815260040162000c289062001923565b60405180910390fd5b805181602001fd5b63150b7a0260e01b7bffffffffffffffffffffffffffffffffffffffffffffffffffffffff1916817bffffffffffffffffffffffffffffffffffffffffffffffffffffffff19161491505062000c8f565b600190505b949350505050565b60008073ffffffffffffffffffffffffffffffffffffffff166002600084815260200190815260200160002060009054906101000a900473ffffffffffffffffffffffffffffffffffffffff1673ffffffffffffffffffffffffffffffffffffffff1614159050919050565b62000d1b83838362000e5d60201b620021381760201c565b600073ffffffffffffffffffffffffffffffffffffffff168373ffffffffffffffffffffffffffffffffffffffff16141562000d685762000d628162000e6260201b60201c565b62000db0565b8173ffffffffffffffffffffffffffffffffffffffff168373ffffffffffffffffffffffffffffffffffffffff161462000daf5762000dae838262000eab60201b60201c565b5b5b600073ffffffffffffffffffffffffffffffffffffffff168273ffffffffffffffffffffffffffffffffffffffff16141562000dfd5762000df7816200102860201b60201c565b62000e45565b8273ffffffffffffffffffffffffffffffffffffffff168273ffffffffffffffffffffffffffffffffffffffff161462000e445762000e4382826200117060201b60201c565b5b5b505050565b600080823b905060008111915050919050565b505050565b6008805490506009600083815260200190815260200160002081905550600881908060018154018082558091505060019003906000526020600020016000909190919091505550565b6000600162000ec584620007a860201b620014531760201c565b62000ed1919062001c08565b905060006007600084815260200190815260200160002054905081811462000fb7576000600660008673ffffffffffffffffffffffffffffffffffffffff1673ffffffffffffffffffffffffffffffffffffffff168152602001908152602001600020600084815260200190815260200160002054905080600660008773ffffffffffffffffffffffffffffffffffffffff1673ffffffffffffffffffffffffffffffffffffffff168152602001908152602001600020600084815260200190815260200160002081905550816007600083815260200190815260200160002081905550505b6007600084815260200190815260200160002060009055600660008573ffffffffffffffffffffffffffffffffffffffff1673ffffffffffffffffffffffffffffffffffffffff16815260200190815260200160002060008381526020019081526020016000206000905550505050565b600060016008805490506200103e919062001c08565b905060006009600084815260200190815260200160002054905060006008838154811062001095577f4e487b7100000000000000000000000000000000000000000000000000000000600052603260045260246000fd5b906000526020600020015490508060088381548110620010de577f4e487b7100000000000000000000000000000000000000000000000000000000600052603260045260246000fd5b90600052602060002001819055508160096000838152602001908152602001600020819055506009600085815260200190815260200160002060009055600880548062001154577f4e487b7100000000000000000000000000000000000000000000000000000000600052603160045260246000fd5b6001900381819060005260206000200160009055905550505050565b60006200118883620007a860201b620014531760201c565b905081600660008573ffffffffffffffffffffffffffffffffffffffff1673ffffffffffffffffffffffffffffffffffffffff168152602001908152602001600020600083815260200190815260200160002081905550806007600084815260200190815260200160002081905550505050565b8280546200120a9062001ce3565b90600052602060002090601f0160209004810192826200122e57600085556200127a565b82601f106200124957805160ff19168380011785556200127a565b828001600101855582156200127a579182015b82811115620012795782518255916020019190600101906200125c565b5b5090506200128991906200128d565b5090565b5b80821115620012a85760008160009055506001016200128e565b5090565b6000620012c3620012bd8462001aea565b62001ab6565b905082815260208101848484011115620012dc57600080fd5b620012e984828562001cad565b509392505050565b600081519050620013028162001e05565b92915050565b600082601f8301126200131a57600080fd5b81516200132c848260208601620012ac565b91505092915050565b6000602082840312156200134857600080fd5b60006200135884828501620012f1565b91505092915050565b6000806000606084860312156200137757600080fd5b600084015167ffffffffffffffff8111156200139257600080fd5b620013a08682870162001308565b935050602084015167ffffffffffffffff811115620013be57600080fd5b620013cc8682870162001308565b925050604084015167ffffffffffffffff811115620013ea57600080fd5b620013f88682870162001308565b9150509250925092565b6200140d8162001c43565b82525050565b6000620014208262001b1d565b6200142c818562001b28565b93506200143e81856020860162001cad565b620014498162001df4565b840191505092915050565b60006200146360258362001b39565b91507f4d696e7420616d6f756e742068617320746f206265206772656174657220746860008301527f656e20302e0000000000000000000000000000000000000000000000000000006020830152604082019050919050565b6000620014cb60328362001b39565b91507f4552433732313a207472616e7366657220746f206e6f6e20455243373231526560008301527f63656976657220696d706c656d656e74657200000000000000000000000000006020830152604082019050919050565b600062001533601c8362001b39565b91507f4552433732313a20746f6b656e20616c7265616479206d696e746564000000006000830152602082019050919050565b600062001575602e8362001b39565b91507f596f752063616e206f6e6c79207075726368617365203320746f6b656e73206660008301527f6f72207468652070726573616c650000000000000000000000000000000000006020830152604082019050919050565b6000620015dd602a8362001b39565b91507f4552433732313a2062616c616e636520717565727920666f7220746865207a6560008301527f726f2061646472657373000000000000000000000000000000000000000000006020830152604082019050919050565b60006200164560208362001b39565b91507f4552433732313a206d696e7420746f20746865207a65726f20616464726573736000830152602082019050919050565b600062001687601a8362001b39565b91507f436f6e74726163742063616e6e6f74206265207061757365642e0000000000006000830152602082019050919050565b6000620016c960208362001b39565b91507f4f776e61626c653a2063616c6c6572206973206e6f7420746865206f776e65726000830152602082019050919050565b60006200170b60248362001b39565b91507f596f752063616e206f6e6c79207075726368617365203320746f6b656e73207460008301527f6f74616c000000000000000000000000000000000000000000000000000000006020830152604082019050919050565b60006200177360588362001b39565b91507f5468652063757272656e7420737570706c7920706c757320796f7572206d696e60008301527f7420616d6f756e742068617320746f206265206c657373207468656e206f722060208301527f657175616c20746f20746865206d617820737570706c792e00000000000000006040830152606082019050919050565b60006200180160248362001b39565b91507f596f752063616e206f6e6c79207075726368617365203620746f6b656e73207460008301527f6f74616c000000000000000000000000000000000000000000000000000000006020830152604082019050919050565b60006200186960178362001b39565b91507f75736572206973206e6f742077686974656c69737465640000000000000000006000830152602082019050919050565b620018a78162001ca3565b82525050565b6000608082019050620018c4600083018762001402565b620018d3602083018662001402565b620018e260408301856200189c565b8181036060830152620018f6818462001413565b905095945050505050565b600060208201905081810360008301526200191c8162001454565b9050919050565b600060208201905081810360008301526200193e81620014bc565b9050919050565b60006020820190508181036000830152620019608162001524565b9050919050565b60006020820190508181036000830152620019828162001566565b9050919050565b60006020820190508181036000830152620019a481620015ce565b9050919050565b60006020820190508181036000830152620019c68162001636565b9050919050565b60006020820190508181036000830152620019e88162001678565b9050919050565b6000602082019050818103600083015262001a0a81620016ba565b9050919050565b6000602082019050818103600083015262001a2c81620016fc565b9050919050565b6000602082019050818103600083015262001a4e8162001764565b9050919050565b6000602082019050818103600083015262001a7081620017f2565b9050919050565b6000602082019050818103600083015262001a92816200185a565b9050919050565b600060208201905062001ab060008301846200189c565b92915050565b6000604051905081810181811067ffffffffffffffff8211171562001ae05762001adf62001dc5565b5b8060405250919050565b600067ffffffffffffffff82111562001b085762001b0762001dc5565b5b601f19601f8301169050602081019050919050565b600081519050919050565b600082825260208201905092915050565b600082825260208201905092915050565b600062001b578262001ca3565b915062001b648362001ca3565b9250827fffffffffffffffffffffffffffffffffffffffffffffffffffffffffffffffff0382111562001b9c5762001b9b62001d67565b5b828201905092915050565b600062001bb48262001ca3565b915062001bc18362001ca3565b9250817fffffffffffffffffffffffffffffffffffffffffffffffffffffffffffffffff048311821515161562001bfd5762001bfc62001d67565b5b828202905092915050565b600062001c158262001ca3565b915062001c228362001ca3565b92508282101562001c385762001c3762001d67565b5b828203905092915050565b600062001c508262001c83565b9050919050565b60007fffffffff0000000000000000000000000000000000000000000000000000000082169050919050565b600073ffffffffffffffffffffffffffffffffffffffff82169050919050565b6000819050919050565b60005b8381101562001ccd57808201518184015260208101905062001cb0565b8381111562001cdd576000848401525b50505050565b6000600282049050600182168062001cfc57607f821691505b6020821081141562001d135762001d1262001d96565b5b50919050565b600062001d268262001ca3565b91507fffffffffffffffffffffffffffffffffffffffffffffffffffffffffffffffff82141562001d5c5762001d5b62001d67565b5b600182019050919050565b7f4e487b7100000000000000000000000000000000000000000000000000000000600052601160045260246000fd5b7f4e487b7100000000000000000000000000000000000000000000000000000000600052602260045260246000fd5b7f4e487b7100000000000000000000000000000000000000000000000000000000600052604160045260246000fd5b6000601f19601f8301169050919050565b62001e108162001c57565b811462001e1c57600080fd5b50565b614d098062001e2f6000396000f3fe6080604052600436106102465760003560e01c80636352211e11610139578063a22cb465116100b6578063d5abeb011161007a578063d5abeb0114610888578063d76fd220146108b3578063da3ef23f146108dc578063e985e9c514610905578063edec5f2714610942578063f2fde38b1461096b57610246565b8063a22cb46514610791578063b88d4fde146107ba578063ba4e5c49146107e3578063c668286214610820578063c87b56dd1461084b57610246565b806385480756116100fd57806385480756146106cb5780638895283f146106f65780638da5cb5b1461071f57806395d89b411461074a578063a0712d681461077557610246565b80636352211e146105e65780636c0360eb1461062357806370a082311461064e578063715018a61461068b5780637f00c7a6146106a257610246565b80632f745c59116101c757806344a0d68a1161018b57806344a0d68a146105015780634f6ccce71461052a57806353135ca01461056757806355f804b3146105925780635c975abb146105bb57610246565b80632f745c59146104175780633af32abf146104545780633ccfd60b1461049157806342842e0e1461049b578063438b6300146104c457610246565b806312065fe01161020e57806312065fe01461034257806313faede61461036d57806318160ddd14610398578063239c70ae146103c357806323b872dd146103ee57610246565b806301ffc9a71461024b57806302329a291461028857806306fdde03146102b1578063081812fc146102dc578063095ea7b314610319575b600080fd5b34801561025757600080fd5b50610272600480360381019061026d91906137b7565b610994565b60405161027f9190614479565b60405180910390f35b34801561029457600080fd5b506102af60048036038101906102aa919061378e565b610a0e565b005b3480156102bd57600080fd5b506102c6610aa7565b6040516102d39190614494565b60405180910390f35b3480156102e857600080fd5b5061030360048036038101906102fe919061384a565b610b39565b60405161031091906143f0565b60405180910390f35b34801561032557600080fd5b50610340600480360381019061033b919061370d565b610bbe565b005b34801561034e57600080fd5b50610357610cd6565b60405161036491906147f6565b60405180910390f35b34801561037957600080fd5b50610382610d5a565b60405161038f91906147f6565b60405180910390f35b3480156103a457600080fd5b506103ad610d60565b6040516103ba91906147f6565b60405180910390f35b3480156103cf57600080fd5b506103d8610d6d565b6040516103e591906147f6565b60405180910390f35b3480156103fa57600080fd5b5061041560048036038101906104109190613607565b610d73565b005b34801561042357600080fd5b5061043e6004803603810190610439919061370d565b610dd3565b60405161044b91906147f6565b60405180910390f35b34801561046057600080fd5b5061047b600480360381019061047691906135a2565b610e78565b6040516104889190614479565b60405180910390f35b610499610f4d565b005b3480156104a757600080fd5b506104c260048036038101906104bd9190613607565b611020565b005b3480156104d057600080fd5b506104eb60048036038101906104e691906135a2565b611040565b6040516104f89190614457565b60405180910390f35b34801561050d57600080fd5b506105286004803603810190610523919061384a565b61113a565b005b34801561053657600080fd5b50610551600480360381019061054c919061384a565b6111c0565b60405161055e91906147f6565b60405180910390f35b34801561057357600080fd5b5061057c611257565b6040516105899190614479565b60405180910390f35b34801561059e57600080fd5b506105b960048036038101906105b49190613809565b61126a565b005b3480156105c757600080fd5b506105d0611300565b6040516105dd9190614479565b60405180910390f35b3480156105f257600080fd5b5061060d6004803603810190610608919061384a565b611313565b60405161061a91906143f0565b60405180910390f35b34801561062f57600080fd5b506106386113c5565b6040516106459190614494565b60405180910390f35b34801561065a57600080fd5b50610675600480360381019061067091906135a2565b611453565b60405161068291906147f6565b60405180910390f35b34801561069757600080fd5b506106a061150b565b005b3480156106ae57600080fd5b506106c960048036038101906106c4919061384a565b611546565b005b3480156106d757600080fd5b506106e06115cc565b6040516106ed91906147f6565b60405180910390f35b34801561070257600080fd5b5061071d6004803603810190610718919061378e565b6115d2565b005b34801561072b57600080fd5b5061073461166b565b60405161074191906143f0565b60405180910390f35b34801561075657600080fd5b5061075f611695565b60405161076c9190614494565b60405180910390f35b61078f600480360381019061078a919061384a565b611727565b005b34801561079d57600080fd5b506107b860048036038101906107b391906136d1565b611a7d565b005b3480156107c657600080fd5b506107e160048036038101906107dc9190613656565b611bfe565b005b3480156107ef57600080fd5b5061080a6004803603810190610805919061384a565b611c60565b60405161081791906143f0565b60405180910390f35b34801561082c57600080fd5b50610835611c9f565b6040516108429190614494565b60405180910390f35b34801561085757600080fd5b50610872600480360381019061086d919061384a565b611d2d565b60405161087f9190614494565b60405180910390f35b34801561089457600080fd5b5061089d611dd7565b6040516108aa91906147f6565b60405180910390f35b3480156108bf57600080fd5b506108da60048036038101906108d5919061384a565b611ddd565b005b3480156108e857600080fd5b5061090360048036038101906108fe9190613809565b611e63565b005b34801561091157600080fd5b5061092c600480360381019061092791906135cb565b611ef9565b6040516109399190614479565b60405180910390f35b34801561094e57600080fd5b5061096960048036038101906109649190613749565b611f8d565b005b34801561097757600080fd5b50610992600480360381019061098d91906135a2565b61202d565b005b60007f780e9d63000000000000000000000000000000000000000000000000000000007bffffffffffffffffffffffffffffffffffffffffffffffffffffffff1916827bffffffffffffffffffffffffffffffffffffffffffffffffffffffff19161480610a075750610a068261213d565b5b9050919050565b610a1661221f565b73ffffffffffffffffffffffffffffffffffffffff16610a3461166b565b73ffffffffffffffffffffffffffffffffffffffff1614610a8a576040517f08c379a0000000000000000000000000000000000000000000000000000000008152600401610a81906146b6565b60405180910390fd5b80601160006101000a81548160ff02191690831515021790555050565b606060008054610ab690614afe565b80601f0160208091040260200160405190810160405280929190818152602001828054610ae290614afe565b8015610b2f5780601f10610b0457610100808354040283529160200191610b2f565b820191906000526020600020905b815481529060010190602001808311610b1257829003601f168201915b5050505050905090565b6000610b4482612227565b610b83576040517f08c379a0000000000000000000000000000000000000000000000000000000008152600401610b7a90614696565b60405180910390fd5b6004600083815260200190815260200160002060009054906101000a900473ffffffffffffffffffffffffffffffffffffffff169050919050565b6000610bc982611313565b90508073ffffffffffffffffffffffffffffffffffffffff168373ffffffffffffffffffffffffffffffffffffffff161415610c3a576040517f08c379a0000000000000000000000000000000000000000000000000000000008152600401610c3190614736565b60405180910390fd5b8073ffffffffffffffffffffffffffffffffffffffff16610c5961221f565b73ffffffffffffffffffffffffffffffffffffffff161480610c885750610c8781610c8261221f565b611ef9565b5b610cc7576040517f08c379a0000000000000000000000000000000000000000000000000000000008152600401610cbe906145f6565b60405180910390fd5b610cd18383612293565b505050565b6000610ce061221f565b73ffffffffffffffffffffffffffffffffffffffff16610cfe61166b565b73ffffffffffffffffffffffffffffffffffffffff1614610d54576040517f08c379a0000000000000000000000000000000000000000000000000000000008152600401610d4b906146b6565b60405180910390fd5b47905090565b600d5481565b6000600880549050905090565b600f5481565b610d84610d7e61221f565b8261234c565b610dc3576040517f08c379a0000000000000000000000000000000000000000000000000000000008152600401610dba90614756565b60405180910390fd5b610dce83838361242a565b505050565b6000610dde83611453565b8210610e1f576040517f08c379a0000000000000000000000000000000000000000000000000000000008152600401610e16906144d6565b60405180910390fd5b600660008473ffffffffffffffffffffffffffffffffffffffff1673ffffffffffffffffffffffffffffffffffffffff168152602001908152602001600020600083815260200190815260200160002054905092915050565b600080600090505b601280549050811015610f42578273ffffffffffffffffffffffffffffffffffffffff1660128281548110610ede577f4e487b7100000000000000000000000000000000000000000000000000000000600052603260045260246000fd5b9060005260206000200160009054906101000a900473ffffffffffffffffffffffffffffffffffffffff1673ffffffffffffffffffffffffffffffffffffffff161415610f2f576001915050610f48565b8080610f3a90614b30565b915050610e80565b50600090505b919050565b610f5561221f565b73ffffffffffffffffffffffffffffffffffffffff16610f7361166b565b73ffffffffffffffffffffffffffffffffffffffff1614610fc9576040517f08c379a0000000000000000000000000000000000000000000000000000000008152600401610fc0906146b6565b60405180910390fd5b610fd161166b565b73ffffffffffffffffffffffffffffffffffffffff166108fc610ff2610cd6565b9081150290604051600060405180830381858888f1935050505015801561101d573d6000803e3d6000fd5b50565b61103b83838360405180602001604052806000815250611bfe565b505050565b6060600061104d83611453565b905060008167ffffffffffffffff811115611091577f4e487b7100000000000000000000000000000000000000000000000000000000600052604160045260246000fd5b6040519080825280602002602001820160405280156110bf5781602001602082028036833780820191505090505b50905060005b8281101561112f576110d78582610dd3565b828281518110611110577f4e487b7100000000000000000000000000000000000000000000000000000000600052603260045260246000fd5b602002602001018181525050808061112790614b30565b9150506110c5565b508092505050919050565b61114261221f565b73ffffffffffffffffffffffffffffffffffffffff1661116061166b565b73ffffffffffffffffffffffffffffffffffffffff16146111b6576040517f08c379a00000000000000000000000000000000000000000000000000000000081526004016111ad906146b6565b60405180910390fd5b80600d8190555050565b60006111ca610d60565b821061120b576040517f08c379a000000000000000000000000000000000000000000000000000000000815260040161120290614796565b60405180910390fd5b60088281548110611245577f4e487b7100000000000000000000000000000000000000000000000000000000600052603260045260246000fd5b90600052602060002001549050919050565b601160019054906101000a900460ff1681565b61127261221f565b73ffffffffffffffffffffffffffffffffffffffff1661129061166b565b73ffffffffffffffffffffffffffffffffffffffff16146112e6576040517f08c379a00000000000000000000000000000000000000000000000000000000081526004016112dd906146b6565b60405180910390fd5b80600b90805190602001906112fc9291906132bb565b5050565b601160009054906101000a900460ff1681565b6000806002600084815260200190815260200160002060009054906101000a900473ffffffffffffffffffffffffffffffffffffffff169050600073ffffffffffffffffffffffffffffffffffffffff168173ffffffffffffffffffffffffffffffffffffffff1614156113bc576040517f08c379a00000000000000000000000000000000000000000000000000000000081526004016113b390614636565b60405180910390fd5b80915050919050565b600b80546113d290614afe565b80601f01602080910402602001604051908101604052809291908181526020018280546113fe90614afe565b801561144b5780601f106114205761010080835404028352916020019161144b565b820191906000526020600020905b81548152906001019060200180831161142e57829003601f168201915b505050505081565b60008073ffffffffffffffffffffffffffffffffffffffff168273ffffffffffffffffffffffffffffffffffffffff1614156114c4576040517f08c379a00000000000000000000000000000000000000000000000000000000081526004016114bb90614616565b60405180910390fd5b600360008373ffffffffffffffffffffffffffffffffffffffff1673ffffffffffffffffffffffffffffffffffffffff168152602001908152602001600020549050919050565b6040517f08c379a000000000000000000000000000000000000000000000000000000000815260040161153d906145d6565b60405180910390fd5b61154e61221f565b73ffffffffffffffffffffffffffffffffffffffff1661156c61166b565b73ffffffffffffffffffffffffffffffffffffffff16146115c2576040517f08c379a00000000000000000000000000000000000000000000000000000000081526004016115b9906146b6565b60405180910390fd5b80600f8190555050565b60105481565b6115da61221f565b73ffffffffffffffffffffffffffffffffffffffff166115f861166b565b73ffffffffffffffffffffffffffffffffffffffff161461164e576040517f08c379a0000000000000000000000000000000000000000000000000000000008152600401611645906146b6565b60405180910390fd5b80601160016101000a81548160ff02191690831515021790555050565b6000600a60009054906101000a900473ffffffffffffffffffffffffffffffffffffffff16905090565b6060600180546116a490614afe565b80601f01602080910402602001604051908101604052809291908181526020018280546116d090614afe565b801561171d5780601f106116f25761010080835404028352916020019161171d565b820191906000526020600020905b81548152906001019060200180831161170057829003601f168201915b5050505050905090565b6000611731610d60565b9050601160009054906101000a900460ff1615611783576040517f08c379a000000000000000000000000000000000000000000000000000000000815260040161177a90614676565b60405180910390fd5b600082116117c6576040517f08c379a00000000000000000000000000000000000000000000000000000000081526004016117bd906144b6565b60405180910390fd5b600e5482826117d59190614933565b1115611816576040517f08c379a000000000000000000000000000000000000000000000000000000000815260040161180d90614776565b60405180910390fd5b61181e61166b565b73ffffffffffffffffffffffffffffffffffffffff163373ffffffffffffffffffffffffffffffffffffffff1614611a055760011515601160019054906101000a900460ff16151514156119115761187533610e78565b6118b4576040517f08c379a00000000000000000000000000000000000000000000000000000000081526004016118ab906147d6565b60405180910390fd5b601054826118c133611453565b6118cb9190614933565b111561190c576040517f08c379a000000000000000000000000000000000000000000000000000000000815260040161190390614596565b60405180910390fd5b6119ea565b6001151561191e33610e78565b1515141561199057600f546010546119369190614933565b8261194033611453565b61194a9190614933565b111561198b576040517f08c379a0000000000000000000000000000000000000000000000000000000008152600401611982906147b6565b60405180910390fd5b6119e9565b600f548261199d33611453565b6119a79190614933565b11156119e8576040517f08c379a00000000000000000000000000000000000000000000000000000000081526004016119df90614716565b60405180910390fd5b5b5b81600d546119f891906149ba565b341015611a0457600080fd5b5b6000600190505b828111611a785760008183611a219190614933565b9050611a2d3382612686565b7f083abd596c375c52fc39a721bb217ecce465c6ff0c5f1a2d1fdb9b27669686dd81604051611a5c91906147f6565b60405180910390a1508080611a7090614b30565b915050611a0c565b505050565b611a8561221f565b73ffffffffffffffffffffffffffffffffffffffff168273ffffffffffffffffffffffffffffffffffffffff161415611af3576040517f08c379a0000000000000000000000000000000000000000000000000000000008152600401611aea90614576565b60405180910390fd5b8060056000611b0061221f565b73ffffffffffffffffffffffffffffffffffffffff1673ffffffffffffffffffffffffffffffffffffffff16815260200190815260200160002060008473ffffffffffffffffffffffffffffffffffffffff1673ffffffffffffffffffffffffffffffffffffffff16815260200190815260200160002060006101000a81548160ff0219169083151502179055508173ffffffffffffffffffffffffffffffffffffffff16611bad61221f565b73ffffffffffffffffffffffffffffffffffffffff167f17307eab39ab6107e8899845ad3d59bd9653f200f220920489ca2b5937696c3183604051611bf29190614479565b60405180910390a35050565b611c0f611c0961221f565b8361234c565b611c4e576040517f08c379a0000000000000000000000000000000000000000000000000000000008152600401611c4590614756565b60405180910390fd5b611c5a848484846126a4565b50505050565b60128181548110611c7057600080fd5b906000526020600020016000915054906101000a900473ffffffffffffffffffffffffffffffffffffffff1681565b600c8054611cac90614afe565b80601f0160208091040260200160405190810160405280929190818152602001828054611cd890614afe565b8015611d255780601f10611cfa57610100808354040283529160200191611d25565b820191906000526020600020905b815481529060010190602001808311611d0857829003601f168201915b505050505081565b6060611d3882612227565b611d77576040517f08c379a0000000000000000000000000000000000000000000000000000000008152600401611d6e906146f6565b60405180910390fd5b6000611d81612700565b90506000815111611da15760405180602001604052806000815250611dcf565b80611dab84612792565b600c604051602001611dbf939291906143bf565b6040516020818303038152906040525b915050919050565b600e5481565b611de561221f565b73ffffffffffffffffffffffffffffffffffffffff16611e0361166b565b73ffffffffffffffffffffffffffffffffffffffff1614611e59576040517f08c379a0000000000000000000000000000000000000000000000000000000008152600401611e50906146b6565b60405180910390fd5b8060108190555050565b611e6b61221f565b73ffffffffffffffffffffffffffffffffffffffff16611e8961166b565b73ffffffffffffffffffffffffffffffffffffffff1614611edf576040517f08c379a0000000000000000000000000000000000000000000000000000000008152600401611ed6906146b6565b60405180910390fd5b80600c9080519060200190611ef59291906132bb565b5050565b6000600560008473ffffffffffffffffffffffffffffffffffffffff1673ffffffffffffffffffffffffffffffffffffffff16815260200190815260200160002060008373ffffffffffffffffffffffffffffffffffffffff1673ffffffffffffffffffffffffffffffffffffffff16815260200190815260200160002060009054906101000a900460ff16905092915050565b611f9561221f565b73ffffffffffffffffffffffffffffffffffffffff16611fb361166b565b73ffffffffffffffffffffffffffffffffffffffff1614612009576040517f08c379a0000000000000000000000000000000000000000000000000000000008152600401612000906146b6565b60405180910390fd5b601260006120179190613341565b818160129190612028929190613362565b505050565b61203561221f565b73ffffffffffffffffffffffffffffffffffffffff1661205361166b565b73ffffffffffffffffffffffffffffffffffffffff16146120a9576040517f08c379a00000000000000000000000000000000000000000000000000000000081526004016120a0906146b6565b60405180910390fd5b600073ffffffffffffffffffffffffffffffffffffffff168173ffffffffffffffffffffffffffffffffffffffff161415612119576040517f08c379a000000000000000000000000000000000000000000000000000000000815260040161211090614516565b60405180910390fd5b6121228161293f565b50565b600080823b905060008111915050919050565b505050565b60007f80ac58cd000000000000000000000000000000000000000000000000000000007bffffffffffffffffffffffffffffffffffffffffffffffffffffffff1916827bffffffffffffffffffffffffffffffffffffffffffffffffffffffff1916148061220857507f5b5e139f000000000000000000000000000000000000000000000000000000007bffffffffffffffffffffffffffffffffffffffffffffffffffffffff1916827bffffffffffffffffffffffffffffffffffffffffffffffffffffffff1916145b80612218575061221782612a05565b5b9050919050565b600033905090565b60008073ffffffffffffffffffffffffffffffffffffffff166002600084815260200190815260200160002060009054906101000a900473ffffffffffffffffffffffffffffffffffffffff1673ffffffffffffffffffffffffffffffffffffffff1614159050919050565b816004600083815260200190815260200160002060006101000a81548173ffffffffffffffffffffffffffffffffffffffff021916908373ffffffffffffffffffffffffffffffffffffffff160217905550808273ffffffffffffffffffffffffffffffffffffffff1661230683611313565b73ffffffffffffffffffffffffffffffffffffffff167f8c5be1e5ebec7d5bd14f71427d1e84f3dd0314c0f7b2291e5b200ac8c7c3b92560405160405180910390a45050565b600061235782612227565b612396576040517f08c379a000000000000000000000000000000000000000000000000000000000815260040161238d906145b6565b60405180910390fd5b60006123a183611313565b90508073ffffffffffffffffffffffffffffffffffffffff168473ffffffffffffffffffffffffffffffffffffffff16148061241057508373ffffffffffffffffffffffffffffffffffffffff166123f884610b39565b73ffffffffffffffffffffffffffffffffffffffff16145b8061242157506124208185611ef9565b5b91505092915050565b8273ffffffffffffffffffffffffffffffffffffffff1661244a82611313565b73ffffffffffffffffffffffffffffffffffffffff16146124a0576040517f08c379a0000000000000000000000000000000000000000000000000000000008152600401612497906146d6565b60405180910390fd5b600073ffffffffffffffffffffffffffffffffffffffff168273ffffffffffffffffffffffffffffffffffffffff161415612510576040517f08c379a000000000000000000000000000000000000000000000000000000000815260040161250790614556565b60405180910390fd5b61251b838383612a6f565b612526600082612293565b6001600360008573ffffffffffffffffffffffffffffffffffffffff1673ffffffffffffffffffffffffffffffffffffffff16815260200190815260200160002060008282546125769190614a14565b925050819055506001600360008473ffffffffffffffffffffffffffffffffffffffff1673ffffffffffffffffffffffffffffffffffffffff16815260200190815260200160002060008282546125cd9190614933565b92505081905550816002600083815260200190815260200160002060006101000a81548173ffffffffffffffffffffffffffffffffffffffff021916908373ffffffffffffffffffffffffffffffffffffffff160217905550808273ffffffffffffffffffffffffffffffffffffffff168473ffffffffffffffffffffffffffffffffffffffff167fddf252ad1be2c89b69c2b068fc378daa952ba7f163c4a11628f55a4df523b3ef60405160405180910390a4505050565b6126a0828260405180602001604052806000815250612b83565b5050565b6126af84848461242a565b6126bb84848484612bde565b6126fa576040517f08c379a00000000000000000000000000000000000000000000000000000000081526004016126f1906144f6565b60405180910390fd5b50505050565b6060600b805461270f90614afe565b80601f016020809104026020016040519081016040528092919081815260200182805461273b90614afe565b80156127885780601f1061275d57610100808354040283529160200191612788565b820191906000526020600020905b81548152906001019060200180831161276b57829003601f168201915b5050505050905090565b606060008214156127da576040518060400160405280600181526020017f3000000000000000000000000000000000000000000000000000000000000000815250905061293a565b600082905060005b6000821461280c5780806127f590614b30565b915050600a826128059190614989565b91506127e2565b60008167ffffffffffffffff81111561284e577f4e487b7100000000000000000000000000000000000000000000000000000000600052604160045260246000fd5b6040519080825280601f01601f1916602001820160405280156128805781602001600182028036833780820191505090505b5090505b60008514612933576001826128999190614a14565b9150600a856128a89190614b79565b60306128b49190614933565b60f81b8183815181106128f0577f4e487b7100000000000000000000000000000000000000000000000000000000600052603260045260246000fd5b60200101907effffffffffffffffffffffffffffffffffffffffffffffffffffffffffffff1916908160001a905350600a8561292c9190614989565b9450612884565b8093505050505b919050565b6000600a60009054906101000a900473ffffffffffffffffffffffffffffffffffffffff16905081600a60006101000a81548173ffffffffffffffffffffffffffffffffffffffff021916908373ffffffffffffffffffffffffffffffffffffffff1602179055508173ffffffffffffffffffffffffffffffffffffffff168173ffffffffffffffffffffffffffffffffffffffff167f8be0079c531659141344cd1fd0a4f28419497f9722a3daafe3b4186f6b6457e060405160405180910390a35050565b60007f01ffc9a7000000000000000000000000000000000000000000000000000000007bffffffffffffffffffffffffffffffffffffffffffffffffffffffff1916827bffffffffffffffffffffffffffffffffffffffffffffffffffffffff1916149050919050565b612a7a838383612138565b600073ffffffffffffffffffffffffffffffffffffffff168373ffffffffffffffffffffffffffffffffffffffff161415612abd57612ab881612d75565b612afc565b8173ffffffffffffffffffffffffffffffffffffffff168373ffffffffffffffffffffffffffffffffffffffff1614612afb57612afa8382612dbe565b5b5b600073ffffffffffffffffffffffffffffffffffffffff168273ffffffffffffffffffffffffffffffffffffffff161415612b3f57612b3a81612f2b565b612b7e565b8273ffffffffffffffffffffffffffffffffffffffff168273ffffffffffffffffffffffffffffffffffffffff1614612b7d57612b7c828261306e565b5b5b505050565b612b8d83836130ed565b612b9a6000848484612bde565b612bd9576040517f08c379a0000000000000000000000000000000000000000000000000000000008152600401612bd0906144f6565b60405180910390fd5b505050565b6000612bff8473ffffffffffffffffffffffffffffffffffffffff16612125565b15612d68578373ffffffffffffffffffffffffffffffffffffffff1663150b7a02612c2861221f565b8786866040518563ffffffff1660e01b8152600401612c4a949392919061440b565b602060405180830381600087803b158015612c6457600080fd5b505af1925050508015612c9557506040513d601f19601f82011682018060405250810190612c9291906137e0565b60015b612d18573d8060008114612cc5576040519150601f19603f3d011682016040523d82523d6000602084013e612cca565b606091505b50600081511415612d10576040517f08c379a0000000000000000000000000000000000000000000000000000000008152600401612d07906144f6565b60405180910390fd5b805181602001fd5b63150b7a0260e01b7bffffffffffffffffffffffffffffffffffffffffffffffffffffffff1916817bffffffffffffffffffffffffffffffffffffffffffffffffffffffff191614915050612d6d565b600190505b949350505050565b6008805490506009600083815260200190815260200160002081905550600881908060018154018082558091505060019003906000526020600020016000909190919091505550565b60006001612dcb84611453565b612dd59190614a14565b9050600060076000848152602001908152602001600020549050818114612eba576000600660008673ffffffffffffffffffffffffffffffffffffffff1673ffffffffffffffffffffffffffffffffffffffff168152602001908152602001600020600084815260200190815260200160002054905080600660008773ffffffffffffffffffffffffffffffffffffffff1673ffffffffffffffffffffffffffffffffffffffff168152602001908152602001600020600084815260200190815260200160002081905550816007600083815260200190815260200160002081905550505b6007600084815260200190815260200160002060009055600660008573ffffffffffffffffffffffffffffffffffffffff1673ffffffffffffffffffffffffffffffffffffffff16815260200190815260200160002060008381526020019081526020016000206000905550505050565b60006001600880549050612f3f9190614a14565b9050600060096000848152602001908152602001600020549050600060088381548110612f95577f4e487b7100000000000000000000000000000000000000000000000000000000600052603260045260246000fd5b906000526020600020015490508060088381548110612fdd577f4e487b7100000000000000000000000000000000000000000000000000000000600052603260045260246000fd5b906000526020600020018190555081600960008381526020019081526020016000208190555060096000858152602001908152602001600020600090556008805480613052577f4e487b7100000000000000000000000000000000000000000000000000000000600052603160045260246000fd5b6001900381819060005260206000200160009055905550505050565b600061307983611453565b905081600660008573ffffffffffffffffffffffffffffffffffffffff1673ffffffffffffffffffffffffffffffffffffffff168152602001908152602001600020600083815260200190815260200160002081905550806007600084815260200190815260200160002081905550505050565b600073ffffffffffffffffffffffffffffffffffffffff168273ffffffffffffffffffffffffffffffffffffffff16141561315d576040517f08c379a000000000000000000000000000000000000000000000000000000000815260040161315490614656565b60405180910390fd5b61316681612227565b156131a6576040517f08c379a000000000000000000000000000000000000000000000000000000000815260040161319d90614536565b60405180910390fd5b6131b260008383612a6f565b6001600360008473ffffffffffffffffffffffffffffffffffffffff1673ffffffffffffffffffffffffffffffffffffffff16815260200190815260200160002060008282546132029190614933565b92505081905550816002600083815260200190815260200160002060006101000a81548173ffffffffffffffffffffffffffffffffffffffff021916908373ffffffffffffffffffffffffffffffffffffffff160217905550808273ffffffffffffffffffffffffffffffffffffffff16600073ffffffffffffffffffffffffffffffffffffffff167fddf252ad1be2c89b69c2b068fc378daa952ba7f163c4a11628f55a4df523b3ef60405160405180910390a45050565b8280546132c790614afe565b90600052602060002090601f0160209004810192826132e95760008555613330565b82601f1061330257805160ff1916838001178555613330565b82800160010185558215613330579182015b8281111561332f578251825591602001919060010190613314565b5b50905061333d9190613402565b5090565b508054600082559060005260206000209081019061335f9190613402565b50565b8280548282559060005260206000209081019282156133f1579160200282015b828111156133f057823573ffffffffffffffffffffffffffffffffffffffff168260006101000a81548173ffffffffffffffffffffffffffffffffffffffff021916908373ffffffffffffffffffffffffffffffffffffffff16021790555091602001919060010190613382565b5b5090506133fe9190613402565b5090565b5b8082111561341b576000816000905550600101613403565b5090565b600061343261342d84614842565b614811565b90508281526020810184848401111561344a57600080fd5b613455848285614abc565b509392505050565b600061347061346b84614872565b614811565b90508281526020810184848401111561348857600080fd5b613493848285614abc565b509392505050565b6000813590506134aa81614c77565b92915050565b60008083601f8401126134c257600080fd5b8235905067ffffffffffffffff8111156134db57600080fd5b6020830191508360208202830111156134f357600080fd5b9250929050565b60008135905061350981614c8e565b92915050565b60008135905061351e81614ca5565b92915050565b60008151905061353381614ca5565b92915050565b600082601f83011261354a57600080fd5b813561355a84826020860161341f565b91505092915050565b600082601f83011261357457600080fd5b813561358484826020860161345d565b91505092915050565b60008135905061359c81614cbc565b92915050565b6000602082840312156135b457600080fd5b60006135c28482850161349b565b91505092915050565b600080604083850312156135de57600080fd5b60006135ec8582860161349b565b92505060206135fd8582860161349b565b9150509250929050565b60008060006060848603121561361c57600080fd5b600061362a8682870161349b565b935050602061363b8682870161349b565b925050604061364c8682870161358d565b9150509250925092565b6000806000806080858703121561366c57600080fd5b600061367a8782880161349b565b945050602061368b8782880161349b565b935050604061369c8782880161358d565b925050606085013567ffffffffffffffff8111156136b957600080fd5b6136c587828801613539565b91505092959194509250565b600080604083850312156136e457600080fd5b60006136f28582860161349b565b9250506020613703858286016134fa565b9150509250929050565b6000806040838503121561372057600080fd5b600061372e8582860161349b565b925050602061373f8582860161358d565b9150509250929050565b6000806020838503121561375c57600080fd5b600083013567ffffffffffffffff81111561377657600080fd5b613782858286016134b0565b92509250509250929050565b6000602082840312156137a057600080fd5b60006137ae848285016134fa565b91505092915050565b6000602082840312156137c957600080fd5b60006137d78482850161350f565b91505092915050565b6000602082840312156137f257600080fd5b600061380084828501613524565b91505092915050565b60006020828403121561381b57600080fd5b600082013567ffffffffffffffff81111561383557600080fd5b61384184828501613563565b91505092915050565b60006020828403121561385c57600080fd5b600061386a8482850161358d565b91505092915050565b600061387f83836143a1565b60208301905092915050565b61389481614a48565b82525050565b60006138a5826148c7565b6138af81856148f5565b93506138ba836148a2565b8060005b838110156138eb5781516138d28882613873565b97506138dd836148e8565b9250506001810190506138be565b5085935050505092915050565b61390181614a5a565b82525050565b6000613912826148d2565b61391c8185614906565b935061392c818560208601614acb565b61393581614c66565b840191505092915050565b600061394b826148dd565b6139558185614917565b9350613965818560208601614acb565b61396e81614c66565b840191505092915050565b6000613984826148dd565b61398e8185614928565b935061399e818560208601614acb565b80840191505092915050565b600081546139b781614afe565b6139c18186614928565b945060018216600081146139dc57600181146139ed57613a20565b60ff19831686528186019350613a20565b6139f6856148b2565b60005b83811015613a18578154818901526001820191506020810190506139f9565b838801955050505b50505092915050565b6000613a36602583614917565b91507f4d696e7420616d6f756e742068617320746f206265206772656174657220746860008301527f656e20302e0000000000000000000000000000000000000000000000000000006020830152604082019050919050565b6000613a9c602b83614917565b91507f455243373231456e756d657261626c653a206f776e657220696e646578206f7560008301527f74206f6620626f756e64730000000000000000000000000000000000000000006020830152604082019050919050565b6000613b02603283614917565b91507f4552433732313a207472616e7366657220746f206e6f6e20455243373231526560008301527f63656976657220696d706c656d656e74657200000000000000000000000000006020830152604082019050919050565b6000613b68602683614917565b91507f4f776e61626c653a206e6577206f776e657220697320746865207a65726f206160008301527f64647265737300000000000000000000000000000000000000000000000000006020830152604082019050919050565b6000613bce601c83614917565b91507f4552433732313a20746f6b656e20616c7265616479206d696e746564000000006000830152602082019050919050565b6000613c0e602483614917565b91507f4552433732313a207472616e7366657220746f20746865207a65726f2061646460008301527f72657373000000000000000000000000000000000000000000000000000000006020830152604082019050919050565b6000613c74601983614917565b91507f4552433732313a20617070726f766520746f2063616c6c6572000000000000006000830152602082019050919050565b6000613cb4602e83614917565b91507f596f752063616e206f6e6c79207075726368617365203320746f6b656e73206660008301527f6f72207468652070726573616c650000000000000000000000000000000000006020830152604082019050919050565b6000613d1a602c83614917565b91507f4552433732313a206f70657261746f7220717565727920666f72206e6f6e657860008301527f697374656e7420746f6b656e00000000000000000000000000000000000000006020830152604082019050919050565b6000613d80601d83614917565b91507f43616e27742072656e6f756e6365206f776e65727368697020686572650000006000830152602082019050919050565b6000613dc0603883614917565b91507f4552433732313a20617070726f76652063616c6c6572206973206e6f74206f7760008301527f6e6572206e6f7220617070726f76656420666f7220616c6c00000000000000006020830152604082019050919050565b6000613e26602a83614917565b91507f4552433732313a2062616c616e636520717565727920666f7220746865207a6560008301527f726f2061646472657373000000000000000000000000000000000000000000006020830152604082019050919050565b6000613e8c602983614917565b91507f4552433732313a206f776e657220717565727920666f72206e6f6e657869737460008301527f656e7420746f6b656e00000000000000000000000000000000000000000000006020830152604082019050919050565b6000613ef2602083614917565b91507f4552433732313a206d696e7420746f20746865207a65726f20616464726573736000830152602082019050919050565b6000613f32601a83614917565b91507f436f6e74726163742063616e6e6f74206265207061757365642e0000000000006000830152602082019050919050565b6000613f72602c83614917565b91507f4552433732313a20617070726f76656420717565727920666f72206e6f6e657860008301527f697374656e7420746f6b656e00000000000000000000000000000000000000006020830152604082019050919050565b6000613fd8602083614917565b91507f4f776e61626c653a2063616c6c6572206973206e6f7420746865206f776e65726000830152602082019050919050565b6000614018602983614917565b91507f4552433732313a207472616e73666572206f6620746f6b656e2074686174206960008301527f73206e6f74206f776e00000000000000000000000000000000000000000000006020830152604082019050919050565b600061407e602f83614917565b91507f4552433732314d657461646174613a2055524920717565727920666f72206e6f60008301527f6e6578697374656e7420746f6b656e00000000000000000000000000000000006020830152604082019050919050565b60006140e4602483614917565b91507f596f752063616e206f6e6c79207075726368617365203320746f6b656e73207460008301527f6f74616c000000000000000000000000000000000000000000000000000000006020830152604082019050919050565b600061414a602183614917565b91507f4552433732313a20617070726f76616c20746f2063757272656e74206f776e6560008301527f72000000000000000000000000000000000000000000000000000000000000006020830152604082019050919050565b60006141b0603183614917565b91507f4552433732313a207472616e736665722063616c6c6572206973206e6f74206f60008301527f776e6572206e6f7220617070726f7665640000000000000000000000000000006020830152604082019050919050565b6000614216605883614917565b91507f5468652063757272656e7420737570706c7920706c757320796f7572206d696e60008301527f7420616d6f756e742068617320746f206265206c657373207468656e206f722060208301527f657175616c20746f20746865206d617820737570706c792e00000000000000006040830152606082019050919050565b60006142a2602c83614917565b91507f455243373231456e756d657261626c653a20676c6f62616c20696e646578206f60008301527f7574206f6620626f756e647300000000000000000000000000000000000000006020830152604082019050919050565b6000614308602483614917565b91507f596f752063616e206f6e6c79207075726368617365203620746f6b656e73207460008301527f6f74616c000000000000000000000000000000000000000000000000000000006020830152604082019050919050565b600061436e601783614917565b91507f75736572206973206e6f742077686974656c69737465640000000000000000006000830152602082019050919050565b6143aa81614ab2565b82525050565b6143b981614ab2565b82525050565b60006143cb8286613979565b91506143d78285613979565b91506143e382846139aa565b9150819050949350505050565b6000602082019050614405600083018461388b565b92915050565b6000608082019050614420600083018761388b565b61442d602083018661388b565b61443a60408301856143b0565b818103606083015261444c8184613907565b905095945050505050565b60006020820190508181036000830152614471818461389a565b905092915050565b600060208201905061448e60008301846138f8565b92915050565b600060208201905081810360008301526144ae8184613940565b905092915050565b600060208201905081810360008301526144cf81613a29565b9050919050565b600060208201905081810360008301526144ef81613a8f565b9050919050565b6000602082019050818103600083015261450f81613af5565b9050919050565b6000602082019050818103600083015261452f81613b5b565b9050919050565b6000602082019050818103600083015261454f81613bc1565b9050919050565b6000602082019050818103600083015261456f81613c01565b9050919050565b6000602082019050818103600083015261458f81613c67565b9050919050565b600060208201905081810360008301526145af81613ca7565b9050919050565b600060208201905081810360008301526145cf81613d0d565b9050919050565b600060208201905081810360008301526145ef81613d73565b9050919050565b6000602082019050818103600083015261460f81613db3565b9050919050565b6000602082019050818103600083015261462f81613e19565b9050919050565b6000602082019050818103600083015261464f81613e7f565b9050919050565b6000602082019050818103600083015261466f81613ee5565b9050919050565b6000602082019050818103600083015261468f81613f25565b9050919050565b600060208201905081810360008301526146af81613f65565b9050919050565b600060208201905081810360008301526146cf81613fcb565b9050919050565b600060208201905081810360008301526146ef8161400b565b9050919050565b6000602082019050818103600083015261470f81614071565b9050919050565b6000602082019050818103600083015261472f816140d7565b9050919050565b6000602082019050818103600083015261474f8161413d565b9050919050565b6000602082019050818103600083015261476f816141a3565b9050919050565b6000602082019050818103600083015261478f81614209565b9050919050565b600060208201905081810360008301526147af81614295565b9050919050565b600060208201905081810360008301526147cf816142fb565b9050919050565b600060208201905081810360008301526147ef81614361565b9050919050565b600060208201905061480b60008301846143b0565b92915050565b6000604051905081810181811067ffffffffffffffff8211171561483857614837614c37565b5b8060405250919050565b600067ffffffffffffffff82111561485d5761485c614c37565b5b601f19601f8301169050602081019050919050565b600067ffffffffffffffff82111561488d5761488c614c37565b5b601f19601f8301169050602081019050919050565b6000819050602082019050919050565b60008190508160005260206000209050919050565b600081519050919050565b600081519050919050565b600081519050919050565b6000602082019050919050565b600082825260208201905092915050565b600082825260208201905092915050565b600082825260208201905092915050565b600081905092915050565b600061493e82614ab2565b915061494983614ab2565b9250827fffffffffffffffffffffffffffffffffffffffffffffffffffffffffffffffff0382111561497e5761497d614baa565b5b828201905092915050565b600061499482614ab2565b915061499f83614ab2565b9250826149af576149ae614bd9565b5b828204905092915050565b60006149c582614ab2565b91506149d083614ab2565b9250817fffffffffffffffffffffffffffffffffffffffffffffffffffffffffffffffff0483118215151615614a0957614a08614baa565b5b828202905092915050565b6000614a1f82614ab2565b9150614a2a83614ab2565b925082821015614a3d57614a3c614baa565b5b828203905092915050565b6000614a5382614a92565b9050919050565b60008115159050919050565b60007fffffffff0000000000000000000000000000000000000000000000000000000082169050919050565b600073ffffffffffffffffffffffffffffffffffffffff82169050919050565b6000819050919050565b82818337600083830152505050565b60005b83811015614ae9578082015181840152602081019050614ace565b83811115614af8576000848401525b50505050565b60006002820490506001821680614b1657607f821691505b60208210811415614b2a57614b29614c08565b5b50919050565b6000614b3b82614ab2565b91507fffffffffffffffffffffffffffffffffffffffffffffffffffffffffffffffff821415614b6e57614b6d614baa565b5b600182019050919050565b6000614b8482614ab2565b9150614b8f83614ab2565b925082614b9f57614b9e614bd9565b5b828206905092915050565b7f4e487b7100000000000000000000000000000000000000000000000000000000600052601160045260246000fd5b7f4e487b7100000000000000000000000000000000000000000000000000000000600052601260045260246000fd5b7f4e487b7100000000000000000000000000000000000000000000000000000000600052602260045260246000fd5b7f4e487b7100000000000000000000000000000000000000000000000000000000600052604160045260246000fd5b6000601f19601f8301169050919050565b614c8081614a48565b8114614c8b57600080fd5b50565b614c9781614a5a565b8114614ca257600080fd5b50565b614cae81614a66565b8114614cb957600080fd5b50565b614cc581614ab2565b8114614cd057600080fd5b5056fea2646970667358221220c6d17a799e0e7364646c167fa0b389d6360b6afe1f2b96d6da71544e41d5146e64736f6c63430008000033",
  "linkReferences": {},
  "deployedLinkReferences": {}
}