{
  "_format": "hh-sol-artifact-1",
  "contractName": "BitBirds",
  "sourceName": "contracts/BitBirds.sol",
  "abi": [
    {
      "inputs": [
        {
          "internalType": "string",
          "name": "name",
          "type": "string"
        },
        {
          "internalType": "string",
          "name": "symbol",
          "type": "string"
        }
      ],
      "stateMutability": "nonpayable",
      "type": "constructor"
    },
    {
      "anonymous": false,
      "inputs": [
        {
          "indexed": true,
          "internalType": "address",
          "name": "owner",
          "type": "address"
        },
        {
          "indexed": true,
          "internalType": "address",
          "name": "approved",
          "type": "address"
        },
        {
          "indexed": true,
          "internalType": "uint256",
          "name": "tokenId",
          "type": "uint256"
        }
      ],
      "name": "Approval",
      "type": "event"
    },
    {
      "anonymous": false,
      "inputs": [
        {
          "indexed": true,
          "internalType": "address",
          "name": "owner",
          "type": "address"
        },
        {
          "indexed": true,
          "internalType": "address",
          "name": "operator",
          "type": "address"
        },
        {
          "indexed": false,
          "internalType": "bool",
          "name": "approved",
          "type": "bool"
        }
      ],
      "name": "ApprovalForAll",
      "type": "event"
    },
    {
      "anonymous": false,
      "inputs": [
        {
          "indexed": true,
          "internalType": "address",
          "name": "previousOwner",
          "type": "address"
        },
        {
          "indexed": true,
          "internalType": "address",
          "name": "newOwner",
          "type": "address"
        }
      ],
      "name": "OwnershipTransferred",
      "type": "event"
    },
    {
      "anonymous": false,
      "inputs": [
        {
          "indexed": true,
          "internalType": "address",
          "name": "from",
          "type": "address"
        },
        {
          "indexed": true,
          "internalType": "address",
          "name": "to",
          "type": "address"
        },
        {
          "indexed": true,
          "internalType": "uint256",
          "name": "tokenId",
          "type": "uint256"
        }
      ],
      "name": "Transfer",
      "type": "event"
    },
    {
      "anonymous": false,
      "inputs": [
        {
          "indexed": false,
          "internalType": "uint256",
          "name": "_newItemId",
          "type": "uint256"
        }
      ],
      "name": "printNewItemId",
      "type": "event"
    },
    {
      "inputs": [],
      "name": "_owner",
      "outputs": [
        {
          "internalType": "address payable",
          "name": "",
          "type": "address"
        }
      ],
      "stateMutability": "view",
      "type": "function"
    },
    {
      "inputs": [
        {
          "internalType": "address",
          "name": "to",
          "type": "address"
        },
        {
          "internalType": "uint256",
          "name": "tokenId",
          "type": "uint256"
        }
      ],
      "name": "approve",
      "outputs": [],
      "stateMutability": "nonpayable",
      "type": "function"
    },
    {
      "inputs": [
        {
          "internalType": "address",
          "name": "owner",
          "type": "address"
        }
      ],
      "name": "balanceOf",
      "outputs": [
        {
          "internalType": "uint256",
          "name": "",
          "type": "uint256"
        }
      ],
      "stateMutability": "view",
      "type": "function"
    },
    {
      "inputs": [
        {
          "internalType": "uint256",
          "name": "tokenId",
          "type": "uint256"
        }
      ],
      "name": "getApproved",
      "outputs": [
        {
          "internalType": "address",
          "name": "",
          "type": "address"
        }
      ],
      "stateMutability": "view",
      "type": "function"
    },
    {
      "inputs": [],
      "name": "getBalance",
      "outputs": [
        {
          "internalType": "uint256",
          "name": "",
          "type": "uint256"
        }
      ],
      "stateMutability": "view",
      "type": "function"
    },
    {
      "inputs": [
        {
          "internalType": "address",
          "name": "owner",
          "type": "address"
        },
        {
          "internalType": "address",
          "name": "operator",
          "type": "address"
        }
      ],
      "name": "isApprovedForAll",
      "outputs": [
        {
          "internalType": "bool",
          "name": "",
          "type": "bool"
        }
      ],
      "stateMutability": "view",
      "type": "function"
    },
    {
      "inputs": [
        {
          "internalType": "address",
          "name": "recipient",
          "type": "address"
        },
        {
          "internalType": "string",
          "name": "tokenURI",
          "type": "string"
        }
      ],
      "name": "mintNFT",
      "outputs": [
        {
          "internalType": "uint256",
          "name": "",
          "type": "uint256"
        }
      ],
      "stateMutability": "payable",
      "type": "function"
    },
    {
      "inputs": [],
      "name": "name",
      "outputs": [
        {
          "internalType": "string",
          "name": "",
          "type": "string"
        }
      ],
      "stateMutability": "view",
      "type": "function"
    },
    {
      "inputs": [
        {
          "internalType": "uint256",
          "name": "tokenId",
          "type": "uint256"
        }
      ],
      "name": "ownerOf",
      "outputs": [
        {
          "internalType": "address",
          "name": "",
          "type": "address"
        }
      ],
      "stateMutability": "view",
      "type": "function"
    },
    {
      "inputs": [
        {
          "internalType": "address",
          "name": "from",
          "type": "address"
        },
        {
          "internalType": "address",
          "name": "to",
          "type": "address"
        },
        {
          "internalType": "uint256",
          "name": "tokenId",
          "type": "uint256"
        }
      ],
      "name": "safeTransferFrom",
      "outputs": [],
      "stateMutability": "nonpayable",
      "type": "function"
    },
    {
      "inputs": [
        {
          "internalType": "address",
          "name": "from",
          "type": "address"
        },
        {
          "internalType": "address",
          "name": "to",
          "type": "address"
        },
        {
          "internalType": "uint256",
          "name": "tokenId",
          "type": "uint256"
        },
        {
          "internalType": "bytes",
          "name": "_data",
          "type": "bytes"
        }
      ],
      "name": "safeTransferFrom",
      "outputs": [],
      "stateMutability": "nonpayable",
      "type": "function"
    },
    {
      "inputs": [
        {
          "internalType": "address",
          "name": "operator",
          "type": "address"
        },
        {
          "internalType": "bool",
          "name": "approved",
          "type": "bool"
        }
      ],
      "name": "setApprovalForAll",
      "outputs": [],
      "stateMutability": "nonpayable",
      "type": "function"
    },
    {
      "inputs": [
        {
          "internalType": "bytes4",
          "name": "interfaceId",
          "type": "bytes4"
        }
      ],
      "name": "supportsInterface",
      "outputs": [
        {
          "internalType": "bool",
          "name": "",
          "type": "bool"
        }
      ],
      "stateMutability": "view",
      "type": "function"
    },
    {
      "inputs": [],
      "name": "symbol",
      "outputs": [
        {
          "internalType": "string",
          "name": "",
          "type": "string"
        }
      ],
      "stateMutability": "view",
      "type": "function"
    },
    {
      "inputs": [
        {
          "internalType": "uint256",
          "name": "tokenId",
          "type": "uint256"
        }
      ],
      "name": "tokenURI",
      "outputs": [
        {
          "internalType": "string",
          "name": "",
          "type": "string"
        }
      ],
      "stateMutability": "view",
      "type": "function"
    },
    {
      "inputs": [
        {
          "internalType": "address",
          "name": "from",
          "type": "address"
        },
        {
          "internalType": "address",
          "name": "to",
          "type": "address"
        },
        {
          "internalType": "uint256",
          "name": "tokenId",
          "type": "uint256"
        }
      ],
      "name": "transferFrom",
      "outputs": [],
      "stateMutability": "nonpayable",
      "type": "function"
    },
    {
      "inputs": [
        {
          "internalType": "address payable",
          "name": "newOwner",
          "type": "address"
        }
      ],
      "name": "transferOwnership",
      "outputs": [],
      "stateMutability": "nonpayable",
      "type": "function"
    },
    {
      "inputs": [],
      "name": "withdrawBalance",
      "outputs": [],
      "stateMutability": "nonpayable",
      "type": "function"
    }
  ],
  "bytecode": "0x60806040523480156200001157600080fd5b50604051620037d6380380620037d68339818101604052810190620000379190620002c6565b8181816000908051906020019062000051929190620001a4565b5080600190805190602001906200006a929190620001a4565b5050506200008d62000081620000d660201b60201c565b620000de60201b60201c565b33600760006101000a81548173ffffffffffffffffffffffffffffffffffffffff021916908373ffffffffffffffffffffffffffffffffffffffff16021790555050506200046a565b600033905090565b6000600760009054906101000a900473ffffffffffffffffffffffffffffffffffffffff16905081600760006101000a81548173ffffffffffffffffffffffffffffffffffffffff021916908373ffffffffffffffffffffffffffffffffffffffff1602179055508173ffffffffffffffffffffffffffffffffffffffff168173ffffffffffffffffffffffffffffffffffffffff167f8be0079c531659141344cd1fd0a4f28419497f9722a3daafe3b4186f6b6457e060405160405180910390a35050565b828054620001b290620003d6565b90600052602060002090601f016020900481019282620001d6576000855562000222565b82601f10620001f157805160ff191683800117855562000222565b8280016001018555821562000222579182015b828111156200022157825182559160200191906001019062000204565b5b50905062000231919062000235565b5090565b5b808211156200025057600081600090555060010162000236565b5090565b60006200026b62000265846200036d565b62000339565b9050828152602081018484840111156200028457600080fd5b62000291848285620003a0565b509392505050565b600082601f830112620002ab57600080fd5b8151620002bd84826020860162000254565b91505092915050565b60008060408385031215620002da57600080fd5b600083015167ffffffffffffffff811115620002f557600080fd5b620003038582860162000299565b925050602083015167ffffffffffffffff8111156200032157600080fd5b6200032f8582860162000299565b9150509250929050565b6000604051905081810181811067ffffffffffffffff821117156200036357620003626200043b565b5b8060405250919050565b600067ffffffffffffffff8211156200038b576200038a6200043b565b5b601f19601f8301169050602081019050919050565b60005b83811015620003c0578082015181840152602081019050620003a3565b83811115620003d0576000848401525b50505050565b60006002820490506001821680620003ef57607f821691505b602082108114156200040657620004056200040c565b5b50919050565b7f4e487b7100000000000000000000000000000000000000000000000000000000600052602260045260246000fd5b7f4e487b7100000000000000000000000000000000000000000000000000000000600052604160045260246000fd5b61335c806200047a6000396000f3fe6080604052600436106101095760003560e01c806370a0823111610095578063b88d4fde11610064578063b88d4fde14610369578063c87b56dd14610392578063e985e9c5146103cf578063eacabe141461040c578063f2fde38b1461043c57610109565b806370a08231146102ad57806395d89b41146102ea578063a22cb46514610315578063b2bdfa7b1461033e57610109565b806312065fe0116100dc57806312065fe0146101dc57806323b872dd1461020757806342842e0e146102305780635fd8c710146102595780636352211e1461027057610109565b806301ffc9a71461010e57806306fdde031461014b578063081812fc14610176578063095ea7b3146101b3575b600080fd5b34801561011a57600080fd5b5061013560048036038101906101309190612271565b610465565b6040516101429190612beb565b60405180910390f35b34801561015757600080fd5b50610160610547565b60405161016d9190612c06565b60405180910390f35b34801561018257600080fd5b5061019d600480360381019061019891906122c3565b6105d9565b6040516101aa9190612b69565b60405180910390f35b3480156101bf57600080fd5b506101da60048036038101906101d59190612235565b61065e565b005b3480156101e857600080fd5b506101f1610776565b6040516101fe9190612ec8565b60405180910390f35b34801561021357600080fd5b5061022e600480360381019061022991906120db565b610815565b005b34801561023c57600080fd5b50610257600480360381019061025291906120db565b610875565b005b34801561026557600080fd5b5061026e610895565b005b34801561027c57600080fd5b50610297600480360381019061029291906122c3565b6109e8565b6040516102a49190612b69565b60405180910390f35b3480156102b957600080fd5b506102d460048036038101906102cf919061204d565b610a9a565b6040516102e19190612ec8565b60405180910390f35b3480156102f657600080fd5b506102ff610b52565b60405161030c9190612c06565b60405180910390f35b34801561032157600080fd5b5061033c600480360381019061033791906121a5565b610be4565b005b34801561034a57600080fd5b50610353610d65565b6040516103609190612b84565b60405180910390f35b34801561037557600080fd5b50610390600480360381019061038b919061212a565b610d8b565b005b34801561039e57600080fd5b506103b960048036038101906103b491906122c3565b610ded565b6040516103c69190612c06565b60405180910390f35b3480156103db57600080fd5b506103f660048036038101906103f1919061209f565b610f3f565b6040516104039190612beb565b60405180910390f35b610426600480360381019061042191906121e1565b610fd3565b6040516104339190612ec8565b60405180910390f35b34801561044857600080fd5b50610463600480360381019061045e9190612076565b6110d6565b005b60007f80ac58cd000000000000000000000000000000000000000000000000000000007bffffffffffffffffffffffffffffffffffffffffffffffffffffffff1916827bffffffffffffffffffffffffffffffffffffffffffffffffffffffff1916148061053057507f5b5e139f000000000000000000000000000000000000000000000000000000007bffffffffffffffffffffffffffffffffffffffffffffffffffffffff1916827bffffffffffffffffffffffffffffffffffffffffffffffffffffffff1916145b80610540575061053f826111e9565b5b9050919050565b6060600080546105569061313a565b80601f01602080910402602001604051908101604052809291908181526020018280546105829061313a565b80156105cf5780601f106105a4576101008083540402835291602001916105cf565b820191906000526020600020905b8154815290600101906020018083116105b257829003601f168201915b5050505050905090565b60006105e482611253565b610623576040517f08c379a000000000000000000000000000000000000000000000000000000000815260040161061a90612de8565b60405180910390fd5b6004600083815260200190815260200160002060009054906101000a900473ffffffffffffffffffffffffffffffffffffffff169050919050565b6000610669826109e8565b90508073ffffffffffffffffffffffffffffffffffffffff168373ffffffffffffffffffffffffffffffffffffffff1614156106da576040517f08c379a00000000000000000000000000000000000000000000000000000000081526004016106d190612e88565b60405180910390fd5b8073ffffffffffffffffffffffffffffffffffffffff166106f96112bf565b73ffffffffffffffffffffffffffffffffffffffff1614806107285750610727816107226112bf565b610f3f565b5b610767576040517f08c379a000000000000000000000000000000000000000000000000000000000815260040161075e90612d28565b60405180910390fd5b61077183836112c7565b505050565b60006107806112bf565b73ffffffffffffffffffffffffffffffffffffffff16600760009054906101000a900473ffffffffffffffffffffffffffffffffffffffff1673ffffffffffffffffffffffffffffffffffffffff161461080f576040517f08c379a000000000000000000000000000000000000000000000000000000000815260040161080690612e08565b60405180910390fd5b47905090565b6108266108206112bf565b82611380565b610865576040517f08c379a000000000000000000000000000000000000000000000000000000000815260040161085c90612ea8565b60405180910390fd5b61087083838361145e565b505050565b61089083838360405180602001604052806000815250610d8b565b505050565b61089d6112bf565b73ffffffffffffffffffffffffffffffffffffffff16600760009054906101000a900473ffffffffffffffffffffffffffffffffffffffff1673ffffffffffffffffffffffffffffffffffffffff161461092c576040517f08c379a000000000000000000000000000000000000000000000000000000000815260040161092390612e08565b60405180910390fd5b6000610936610776565b11610976576040517f08c379a000000000000000000000000000000000000000000000000000000000815260040161096d90612c88565b60405180910390fd5b600760009054906101000a900473ffffffffffffffffffffffffffffffffffffffff1673ffffffffffffffffffffffffffffffffffffffff166108fc6109ba610776565b9081150290604051600060405180830381858888f193505050501580156109e5573d6000803e3d6000fd5b50565b6000806002600084815260200190815260200160002060009054906101000a900473ffffffffffffffffffffffffffffffffffffffff169050600073ffffffffffffffffffffffffffffffffffffffff168173ffffffffffffffffffffffffffffffffffffffff161415610a91576040517f08c379a0000000000000000000000000000000000000000000000000000000008152600401610a8890612d68565b60405180910390fd5b80915050919050565b60008073ffffffffffffffffffffffffffffffffffffffff168273ffffffffffffffffffffffffffffffffffffffff161415610b0b576040517f08c379a0000000000000000000000000000000000000000000000000000000008152600401610b0290612d48565b60405180910390fd5b600360008373ffffffffffffffffffffffffffffffffffffffff1673ffffffffffffffffffffffffffffffffffffffff168152602001908152602001600020549050919050565b606060018054610b619061313a565b80601f0160208091040260200160405190810160405280929190818152602001828054610b8d9061313a565b8015610bda5780601f10610baf57610100808354040283529160200191610bda565b820191906000526020600020905b815481529060010190602001808311610bbd57829003601f168201915b5050505050905090565b610bec6112bf565b73ffffffffffffffffffffffffffffffffffffffff168273ffffffffffffffffffffffffffffffffffffffff161415610c5a576040517f08c379a0000000000000000000000000000000000000000000000000000000008152600401610c5190612ce8565b60405180910390fd5b8060056000610c676112bf565b73ffffffffffffffffffffffffffffffffffffffff1673ffffffffffffffffffffffffffffffffffffffff16815260200190815260200160002060008473ffffffffffffffffffffffffffffffffffffffff1673ffffffffffffffffffffffffffffffffffffffff16815260200190815260200160002060006101000a81548160ff0219169083151502179055508173ffffffffffffffffffffffffffffffffffffffff16610d146112bf565b73ffffffffffffffffffffffffffffffffffffffff167f17307eab39ab6107e8899845ad3d59bd9653f200f220920489ca2b5937696c3183604051610d599190612beb565b60405180910390a35050565b600760009054906101000a900473ffffffffffffffffffffffffffffffffffffffff1681565b610d9c610d966112bf565b83611380565b610ddb576040517f08c379a0000000000000000000000000000000000000000000000000000000008152600401610dd290612ea8565b60405180910390fd5b610de7848484846116ba565b50505050565b6060610df882611253565b610e37576040517f08c379a0000000000000000000000000000000000000000000000000000000008152600401610e2e90612dc8565b60405180910390fd5b6000600660008481526020019081526020016000208054610e579061313a565b80601f0160208091040260200160405190810160405280929190818152602001828054610e839061313a565b8015610ed05780601f10610ea557610100808354040283529160200191610ed0565b820191906000526020600020905b815481529060010190602001808311610eb357829003601f168201915b505050505090506000610ee1611716565b9050600081511415610ef7578192505050610f3a565b600082511115610f2c578082604051602001610f14929190612b45565b60405160208183030381529060405292505050610f3a565b610f358461172d565b925050505b919050565b6000600560008473ffffffffffffffffffffffffffffffffffffffff1673ffffffffffffffffffffffffffffffffffffffff16815260200190815260200160002060008373ffffffffffffffffffffffffffffffffffffffff1673ffffffffffffffffffffffffffffffffffffffff16815260200190815260200160002060009054906101000a900460ff16905092915050565b60006002610fe033610a9a565b10611020576040517f08c379a000000000000000000000000000000000000000000000000000000000815260040161101790612e68565b60405180910390fd5b66b1a2bc2ec500003414611069576040517f08c379a000000000000000000000000000000000000000000000000000000000815260040161106090612ca8565b60405180910390fd5b61107360086117d4565b600061107f60086117ea565b905061108b84826117f8565b61109581846119c6565b7fe80533d1d33316f8459c1ef99c5cdbcfe2159cf8291c983d2b83267408f81b4e816040516110c49190612ec8565b60405180910390a18091505092915050565b6110de6112bf565b73ffffffffffffffffffffffffffffffffffffffff16600760009054906101000a900473ffffffffffffffffffffffffffffffffffffffff1673ffffffffffffffffffffffffffffffffffffffff161461116d576040517f08c379a000000000000000000000000000000000000000000000000000000000815260040161116490612e08565b60405180910390fd5b600073ffffffffffffffffffffffffffffffffffffffff168173ffffffffffffffffffffffffffffffffffffffff1614156111dd576040517f08c379a00000000000000000000000000000000000000000000000000000000081526004016111d490612c48565b60405180910390fd5b6111e681611a3a565b50565b60007f01ffc9a7000000000000000000000000000000000000000000000000000000007bffffffffffffffffffffffffffffffffffffffffffffffffffffffff1916827bffffffffffffffffffffffffffffffffffffffffffffffffffffffff1916149050919050565b60008073ffffffffffffffffffffffffffffffffffffffff166002600084815260200190815260200160002060009054906101000a900473ffffffffffffffffffffffffffffffffffffffff1673ffffffffffffffffffffffffffffffffffffffff1614159050919050565b600033905090565b816004600083815260200190815260200160002060006101000a81548173ffffffffffffffffffffffffffffffffffffffff021916908373ffffffffffffffffffffffffffffffffffffffff160217905550808273ffffffffffffffffffffffffffffffffffffffff1661133a836109e8565b73ffffffffffffffffffffffffffffffffffffffff167f8c5be1e5ebec7d5bd14f71427d1e84f3dd0314c0f7b2291e5b200ac8c7c3b92560405160405180910390a45050565b600061138b82611253565b6113ca576040517f08c379a00000000000000000000000000000000000000000000000000000000081526004016113c190612d08565b60405180910390fd5b60006113d5836109e8565b90508073ffffffffffffffffffffffffffffffffffffffff168473ffffffffffffffffffffffffffffffffffffffff16148061144457508373ffffffffffffffffffffffffffffffffffffffff1661142c846105d9565b73ffffffffffffffffffffffffffffffffffffffff16145b8061145557506114548185610f3f565b5b91505092915050565b8273ffffffffffffffffffffffffffffffffffffffff1661147e826109e8565b73ffffffffffffffffffffffffffffffffffffffff16146114d4576040517f08c379a00000000000000000000000000000000000000000000000000000000081526004016114cb90612e28565b60405180910390fd5b600073ffffffffffffffffffffffffffffffffffffffff168273ffffffffffffffffffffffffffffffffffffffff161415611544576040517f08c379a000000000000000000000000000000000000000000000000000000000815260040161153b90612cc8565b60405180910390fd5b61154f838383611b00565b61155a6000826112c7565b6001600360008573ffffffffffffffffffffffffffffffffffffffff1673ffffffffffffffffffffffffffffffffffffffff16815260200190815260200160002060008282546115aa919061303e565b925050819055506001600360008473ffffffffffffffffffffffffffffffffffffffff1673ffffffffffffffffffffffffffffffffffffffff16815260200190815260200160002060008282546116019190612fb7565b92505081905550816002600083815260200190815260200160002060006101000a81548173ffffffffffffffffffffffffffffffffffffffff021916908373ffffffffffffffffffffffffffffffffffffffff160217905550808273ffffffffffffffffffffffffffffffffffffffff168473ffffffffffffffffffffffffffffffffffffffff167fddf252ad1be2c89b69c2b068fc378daa952ba7f163c4a11628f55a4df523b3ef60405160405180910390a4505050565b6116c584848461145e565b6116d184848484611b05565b611710576040517f08c379a000000000000000000000000000000000000000000000000000000000815260040161170790612c28565b60405180910390fd5b50505050565b606060405180602001604052806000815250905090565b606061173882611253565b611777576040517f08c379a000000000000000000000000000000000000000000000000000000000815260040161176e90612e48565b60405180910390fd5b6000611781611716565b905060008151116117a157604051806020016040528060008152506117cc565b806117ab84611c9c565b6040516020016117bc929190612b45565b6040516020818303038152906040525b915050919050565b6001816000016000828254019250508190555050565b600081600001549050919050565b600073ffffffffffffffffffffffffffffffffffffffff168273ffffffffffffffffffffffffffffffffffffffff161415611868576040517f08c379a000000000000000000000000000000000000000000000000000000000815260040161185f90612da8565b60405180910390fd5b61187181611253565b156118b1576040517f08c379a00000000000000000000000000000000000000000000000000000000081526004016118a890612c68565b60405180910390fd5b6118bd60008383611b00565b6001600360008473ffffffffffffffffffffffffffffffffffffffff1673ffffffffffffffffffffffffffffffffffffffff168152602001908152602001600020600082825461190d9190612fb7565b92505081905550816002600083815260200190815260200160002060006101000a81548173ffffffffffffffffffffffffffffffffffffffff021916908373ffffffffffffffffffffffffffffffffffffffff160217905550808273ffffffffffffffffffffffffffffffffffffffff16600073ffffffffffffffffffffffffffffffffffffffff167fddf252ad1be2c89b69c2b068fc378daa952ba7f163c4a11628f55a4df523b3ef60405160405180910390a45050565b6119cf82611253565b611a0e576040517f08c379a0000000000000000000000000000000000000000000000000000000008152600401611a0590612d88565b60405180910390fd5b80600660008481526020019081526020016000209080519060200190611a35929190611e5c565b505050565b6000600760009054906101000a900473ffffffffffffffffffffffffffffffffffffffff16905081600760006101000a81548173ffffffffffffffffffffffffffffffffffffffff021916908373ffffffffffffffffffffffffffffffffffffffff1602179055508173ffffffffffffffffffffffffffffffffffffffff168173ffffffffffffffffffffffffffffffffffffffff167f8be0079c531659141344cd1fd0a4f28419497f9722a3daafe3b4186f6b6457e060405160405180910390a35050565b505050565b6000611b268473ffffffffffffffffffffffffffffffffffffffff16611e49565b15611c8f578373ffffffffffffffffffffffffffffffffffffffff1663150b7a02611b4f6112bf565b8786866040518563ffffffff1660e01b8152600401611b719493929190612b9f565b602060405180830381600087803b158015611b8b57600080fd5b505af1925050508015611bbc57506040513d601f19601f82011682018060405250810190611bb9919061229a565b60015b611c3f573d8060008114611bec576040519150601f19603f3d011682016040523d82523d6000602084013e611bf1565b606091505b50600081511415611c37576040517f08c379a0000000000000000000000000000000000000000000000000000000008152600401611c2e90612c28565b60405180910390fd5b805181602001fd5b63150b7a0260e01b7bffffffffffffffffffffffffffffffffffffffffffffffffffffffff1916817bffffffffffffffffffffffffffffffffffffffffffffffffffffffff191614915050611c94565b600190505b949350505050565b60606000821415611ce4576040518060400160405280600181526020017f30000000000000000000000000000000000000000000000000000000000000008152509050611e44565b600082905060005b60008214611d16578080611cff9061316c565b915050600a82611d0f919061300d565b9150611cec565b60008167ffffffffffffffff811115611d58577f4e487b7100000000000000000000000000000000000000000000000000000000600052604160045260246000fd5b6040519080825280601f01601f191660200182016040528015611d8a5781602001600182028036833780820191505090505b5090505b60008514611e3d57600182611da3919061303e565b9150600a85611db291906131b5565b6030611dbe9190612fb7565b60f81b818381518110611dfa577f4e487b7100000000000000000000000000000000000000000000000000000000600052603260045260246000fd5b60200101907effffffffffffffffffffffffffffffffffffffffffffffffffffffffffffff1916908160001a905350600a85611e36919061300d565b9450611d8e565b8093505050505b919050565b600080823b905060008111915050919050565b828054611e689061313a565b90600052602060002090601f016020900481019282611e8a5760008555611ed1565b82601f10611ea357805160ff1916838001178555611ed1565b82800160010185558215611ed1579182015b82811115611ed0578251825591602001919060010190611eb5565b5b509050611ede9190611ee2565b5090565b5b80821115611efb576000816000905550600101611ee3565b5090565b6000611f12611f0d84612f14565b612ee3565b905082815260208101848484011115611f2a57600080fd5b611f358482856130f8565b509392505050565b6000611f50611f4b84612f44565b612ee3565b905082815260208101848484011115611f6857600080fd5b611f738482856130f8565b509392505050565b600081359050611f8a816132b3565b92915050565b600081359050611f9f816132ca565b92915050565b600081359050611fb4816132e1565b92915050565b600081359050611fc9816132f8565b92915050565b600081519050611fde816132f8565b92915050565b600082601f830112611ff557600080fd5b8135612005848260208601611eff565b91505092915050565b600082601f83011261201f57600080fd5b813561202f848260208601611f3d565b91505092915050565b6000813590506120478161330f565b92915050565b60006020828403121561205f57600080fd5b600061206d84828501611f7b565b91505092915050565b60006020828403121561208857600080fd5b600061209684828501611f90565b91505092915050565b600080604083850312156120b257600080fd5b60006120c085828601611f7b565b92505060206120d185828601611f7b565b9150509250929050565b6000806000606084860312156120f057600080fd5b60006120fe86828701611f7b565b935050602061210f86828701611f7b565b925050604061212086828701612038565b9150509250925092565b6000806000806080858703121561214057600080fd5b600061214e87828801611f7b565b945050602061215f87828801611f7b565b935050604061217087828801612038565b925050606085013567ffffffffffffffff81111561218d57600080fd5b61219987828801611fe4565b91505092959194509250565b600080604083850312156121b857600080fd5b60006121c685828601611f7b565b92505060206121d785828601611fa5565b9150509250929050565b600080604083850312156121f457600080fd5b600061220285828601611f7b565b925050602083013567ffffffffffffffff81111561221f57600080fd5b61222b8582860161200e565b9150509250929050565b6000806040838503121561224857600080fd5b600061225685828601611f7b565b925050602061226785828601612038565b9150509250929050565b60006020828403121561228357600080fd5b600061229184828501611fba565b91505092915050565b6000602082840312156122ac57600080fd5b60006122ba84828501611fcf565b91505092915050565b6000602082840312156122d557600080fd5b60006122e384828501612038565b91505092915050565b6122f581613084565b82525050565b61230481613072565b82525050565b61231381613096565b82525050565b600061232482612f74565b61232e8185612f8a565b935061233e818560208601613107565b612347816132a2565b840191505092915050565b600061235d82612f7f565b6123678185612f9b565b9350612377818560208601613107565b612380816132a2565b840191505092915050565b600061239682612f7f565b6123a08185612fac565b93506123b0818560208601613107565b80840191505092915050565b60006123c9603283612f9b565b91507f4552433732313a207472616e7366657220746f206e6f6e20455243373231526560008301527f63656976657220696d706c656d656e74657200000000000000000000000000006020830152604082019050919050565b600061242f602683612f9b565b91507f4f776e61626c653a206e6577206f776e657220697320746865207a65726f206160008301527f64647265737300000000000000000000000000000000000000000000000000006020830152604082019050919050565b6000612495601c83612f9b565b91507f4552433732313a20746f6b656e20616c7265616479206d696e746564000000006000830152602082019050919050565b60006124d5601d83612f9b565b91507f5468657265206973206e6f20657468657220746f2077697468647261770000006000830152602082019050919050565b6000612515603483612f9b565b91507f506c656173652073656e6420302e303520657468657265756d2065786163746c60008301527f792e20436865636b2070726963652073656e742e0000000000000000000000006020830152604082019050919050565b600061257b602483612f9b565b91507f4552433732313a207472616e7366657220746f20746865207a65726f2061646460008301527f72657373000000000000000000000000000000000000000000000000000000006020830152604082019050919050565b60006125e1601983612f9b565b91507f4552433732313a20617070726f766520746f2063616c6c6572000000000000006000830152602082019050919050565b6000612621602c83612f9b565b91507f4552433732313a206f70657261746f7220717565727920666f72206e6f6e657860008301527f697374656e7420746f6b656e00000000000000000000000000000000000000006020830152604082019050919050565b6000612687603883612f9b565b91507f4552433732313a20617070726f76652063616c6c6572206973206e6f74206f7760008301527f6e6572206e6f7220617070726f76656420666f7220616c6c00000000000000006020830152604082019050919050565b60006126ed602a83612f9b565b91507f4552433732313a2062616c616e636520717565727920666f7220746865207a6560008301527f726f2061646472657373000000000000000000000000000000000000000000006020830152604082019050919050565b6000612753602983612f9b565b91507f4552433732313a206f776e657220717565727920666f72206e6f6e657869737460008301527f656e7420746f6b656e00000000000000000000000000000000000000000000006020830152604082019050919050565b60006127b9602e83612f9b565b91507f45524337323155524953746f726167653a2055524920736574206f66206e6f6e60008301527f6578697374656e7420746f6b656e0000000000000000000000000000000000006020830152604082019050919050565b600061281f602083612f9b565b91507f4552433732313a206d696e7420746f20746865207a65726f20616464726573736000830152602082019050919050565b600061285f603183612f9b565b91507f45524337323155524953746f726167653a2055524920717565727920666f722060008301527f6e6f6e6578697374656e7420746f6b656e0000000000000000000000000000006020830152604082019050919050565b60006128c5602c83612f9b565b91507f4552433732313a20617070726f76656420717565727920666f72206e6f6e657860008301527f697374656e7420746f6b656e00000000000000000000000000000000000000006020830152604082019050919050565b600061292b602083612f9b565b91507f4f776e61626c653a2063616c6c6572206973206e6f7420746865206f776e65726000830152602082019050919050565b600061296b602983612f9b565b91507f4552433732313a207472616e73666572206f6620746f6b656e2074686174206960008301527f73206e6f74206f776e00000000000000000000000000000000000000000000006020830152604082019050919050565b60006129d1602f83612f9b565b91507f4552433732314d657461646174613a2055524920717565727920666f72206e6f60008301527f6e6578697374656e7420746f6b656e00000000000000000000000000000000006020830152604082019050919050565b6000612a37601e83612f9b565b91507f596f752063616e206f6e6c79207075726368617365203220746f6b656e7300006000830152602082019050919050565b6000612a77602183612f9b565b91507f4552433732313a20617070726f76616c20746f2063757272656e74206f776e6560008301527f72000000000000000000000000000000000000000000000000000000000000006020830152604082019050919050565b6000612add603183612f9b565b91507f4552433732313a207472616e736665722063616c6c6572206973206e6f74206f60008301527f776e6572206e6f7220617070726f7665640000000000000000000000000000006020830152604082019050919050565b612b3f816130ee565b82525050565b6000612b51828561238b565b9150612b5d828461238b565b91508190509392505050565b6000602082019050612b7e60008301846122fb565b92915050565b6000602082019050612b9960008301846122ec565b92915050565b6000608082019050612bb460008301876122fb565b612bc160208301866122fb565b612bce6040830185612b36565b8181036060830152612be08184612319565b905095945050505050565b6000602082019050612c00600083018461230a565b92915050565b60006020820190508181036000830152612c208184612352565b905092915050565b60006020820190508181036000830152612c41816123bc565b9050919050565b60006020820190508181036000830152612c6181612422565b9050919050565b60006020820190508181036000830152612c8181612488565b9050919050565b60006020820190508181036000830152612ca1816124c8565b9050919050565b60006020820190508181036000830152612cc181612508565b9050919050565b60006020820190508181036000830152612ce18161256e565b9050919050565b60006020820190508181036000830152612d01816125d4565b9050919050565b60006020820190508181036000830152612d2181612614565b9050919050565b60006020820190508181036000830152612d418161267a565b9050919050565b60006020820190508181036000830152612d61816126e0565b9050919050565b60006020820190508181036000830152612d8181612746565b9050919050565b60006020820190508181036000830152612da1816127ac565b9050919050565b60006020820190508181036000830152612dc181612812565b9050919050565b60006020820190508181036000830152612de181612852565b9050919050565b60006020820190508181036000830152612e01816128b8565b9050919050565b60006020820190508181036000830152612e218161291e565b9050919050565b60006020820190508181036000830152612e418161295e565b9050919050565b60006020820190508181036000830152612e61816129c4565b9050919050565b60006020820190508181036000830152612e8181612a2a565b9050919050565b60006020820190508181036000830152612ea181612a6a565b9050919050565b60006020820190508181036000830152612ec181612ad0565b9050919050565b6000602082019050612edd6000830184612b36565b92915050565b6000604051905081810181811067ffffffffffffffff82111715612f0a57612f09613273565b5b8060405250919050565b600067ffffffffffffffff821115612f2f57612f2e613273565b5b601f19601f8301169050602081019050919050565b600067ffffffffffffffff821115612f5f57612f5e613273565b5b601f19601f8301169050602081019050919050565b600081519050919050565b600081519050919050565b600082825260208201905092915050565b600082825260208201905092915050565b600081905092915050565b6000612fc2826130ee565b9150612fcd836130ee565b9250827fffffffffffffffffffffffffffffffffffffffffffffffffffffffffffffffff03821115613002576130016131e6565b5b828201905092915050565b6000613018826130ee565b9150613023836130ee565b92508261303357613032613215565b5b828204905092915050565b6000613049826130ee565b9150613054836130ee565b925082821015613067576130666131e6565b5b828203905092915050565b600061307d826130ce565b9050919050565b600061308f826130ce565b9050919050565b60008115159050919050565b60007fffffffff0000000000000000000000000000000000000000000000000000000082169050919050565b600073ffffffffffffffffffffffffffffffffffffffff82169050919050565b6000819050919050565b82818337600083830152505050565b60005b8381101561312557808201518184015260208101905061310a565b83811115613134576000848401525b50505050565b6000600282049050600182168061315257607f821691505b6020821081141561316657613165613244565b5b50919050565b6000613177826130ee565b91507fffffffffffffffffffffffffffffffffffffffffffffffffffffffffffffffff8214156131aa576131a96131e6565b5b600182019050919050565b60006131c0826130ee565b91506131cb836130ee565b9250826131db576131da613215565b5b828206905092915050565b7f4e487b7100000000000000000000000000000000000000000000000000000000600052601160045260246000fd5b7f4e487b7100000000000000000000000000000000000000000000000000000000600052601260045260246000fd5b7f4e487b7100000000000000000000000000000000000000000000000000000000600052602260045260246000fd5b7f4e487b7100000000000000000000000000000000000000000000000000000000600052604160045260246000fd5b6000601f19601f8301169050919050565b6132bc81613072565b81146132c757600080fd5b50565b6132d381613084565b81146132de57600080fd5b50565b6132ea81613096565b81146132f557600080fd5b50565b613301816130a2565b811461330c57600080fd5b50565b613318816130ee565b811461332357600080fd5b5056fea2646970667358221220d49327d01e18cca57e856d1bd82743d3c041eee885cbd6639c7d85a0ec4dabba64736f6c63430008000033",
  "linkReferences": {},
  "deployedLinkReferences": {}
}